{
  "contractName": "dETH",
  "abi": [
    {
      "inputs": [
        {
          "internalType": "address payable",
          "name": "_gulper",
          "type": "address"
        },
        {
          "internalType": "address",
          "name": "_proxyCache",
          "type": "address"
        },
        {
          "internalType": "uint256",
          "name": "_cdpId",
          "type": "uint256"
        },
        {
          "internalType": "address",
          "name": "_makerManager",
          "type": "address"
        },
        {
          "internalType": "address",
          "name": "_ethGemJoin",
          "type": "address"
        },
        {
          "internalType": "contract IMCDSaverProxy",
          "name": "_saverProxy",
          "type": "address"
        },
        {
          "internalType": "address",
          "name": "_saverProxyActions",
          "type": "address"
        },
        {
          "internalType": "contract Oracle",
          "name": "_oracle",
          "type": "address"
        },
        {
          "internalType": "address",
          "name": "_initialRecipient",
          "type": "address"
        },
        {
          "internalType": "address",
          "name": "_DSGuardFactory",
          "type": "address"
        },
        {
          "internalType": "address",
          "name": "_FoundryTreasury",
          "type": "address"
        }
      ],
      "payable": false,
      "stateMutability": "nonpayable",
      "type": "constructor"
    },
    {
      "anonymous": false,
      "inputs": [
        {
          "indexed": true,
          "internalType": "address",
          "name": "owner",
          "type": "address"
        },
        {
          "indexed": true,
          "internalType": "address",
          "name": "spender",
          "type": "address"
        },
        {
          "indexed": false,
          "internalType": "uint256",
          "name": "value",
          "type": "uint256"
        }
      ],
      "name": "Approval",
      "type": "event"
    },
    {
      "anonymous": false,
      "inputs": [
        {
          "indexed": false,
          "internalType": "uint256",
          "name": "_repaymentRatio",
          "type": "uint256"
        },
        {
          "indexed": false,
          "internalType": "uint256",
          "name": "_targetRatio",
          "type": "uint256"
        },
        {
          "indexed": false,
          "internalType": "uint256",
          "name": "_boostRatio",
          "type": "uint256"
        },
        {
          "indexed": false,
          "internalType": "uint256",
          "name": "_minRedemptionRatio",
          "type": "uint256"
        },
        {
          "indexed": false,
          "internalType": "uint256",
          "name": "_automationFeePerc",
          "type": "uint256"
        }
      ],
      "name": "AutomationSettingsChanged",
      "type": "event"
    },
    {
      "anonymous": false,
      "inputs": [
        {
          "indexed": false,
          "internalType": "address",
          "name": "_receiver",
          "type": "address"
        },
        {
          "indexed": false,
          "internalType": "uint256",
          "name": "_suppliedCollateral",
          "type": "uint256"
        },
        {
          "indexed": false,
          "internalType": "uint256",
          "name": "_protocolFee",
          "type": "uint256"
        },
        {
          "indexed": false,
          "internalType": "uint256",
          "name": "_automationFee",
          "type": "uint256"
        },
        {
          "indexed": false,
          "internalType": "uint256",
          "name": "_actualCollateralAdded",
          "type": "uint256"
        },
        {
          "indexed": false,
          "internalType": "uint256",
          "name": "_accreditedCollateral",
          "type": "uint256"
        },
        {
          "indexed": false,
          "internalType": "uint256",
          "name": "_tokensIssued",
          "type": "uint256"
        }
      ],
      "name": "Issued",
      "type": "event"
    },
    {
      "anonymous": true,
      "inputs": [
        {
          "indexed": true,
          "internalType": "bytes4",
          "name": "sig",
          "type": "bytes4"
        },
        {
          "indexed": true,
          "internalType": "address",
          "name": "guy",
          "type": "address"
        },
        {
          "indexed": true,
          "internalType": "bytes32",
          "name": "foo",
          "type": "bytes32"
        },
        {
          "indexed": true,
          "internalType": "bytes32",
          "name": "bar",
          "type": "bytes32"
        },
        {
          "indexed": false,
          "internalType": "uint256",
          "name": "wad",
          "type": "uint256"
        },
        {
          "indexed": false,
          "internalType": "bytes",
          "name": "fax",
          "type": "bytes"
        }
      ],
      "name": "LogNote",
      "type": "event"
    },
    {
      "anonymous": false,
      "inputs": [
        {
          "indexed": true,
          "internalType": "address",
          "name": "authority",
          "type": "address"
        }
      ],
      "name": "LogSetAuthority",
      "type": "event"
    },
    {
      "anonymous": false,
      "inputs": [
        {
          "indexed": true,
          "internalType": "address",
          "name": "owner",
          "type": "address"
        }
      ],
      "name": "LogSetOwner",
      "type": "event"
    },
    {
      "anonymous": false,
      "inputs": [
        {
          "indexed": false,
          "internalType": "address",
          "name": "_redeemer",
          "type": "address"
        },
        {
          "indexed": false,
          "internalType": "address",
          "name": "_receiver",
          "type": "address"
        },
        {
          "indexed": false,
          "internalType": "uint256",
          "name": "_tokensRedeemed",
          "type": "uint256"
        },
        {
          "indexed": false,
          "internalType": "uint256",
          "name": "_protocolFee",
          "type": "uint256"
        },
        {
          "indexed": false,
          "internalType": "uint256",
          "name": "_automationFee",
          "type": "uint256"
        },
        {
          "indexed": false,
          "internalType": "uint256",
          "name": "_collateralRedeemed",
          "type": "uint256"
        },
        {
          "indexed": false,
          "internalType": "uint256",
          "name": "_collateralReturned",
          "type": "uint256"
        }
      ],
      "name": "Redeemed",
      "type": "event"
    },
    {
      "anonymous": false,
      "inputs": [
        {
          "indexed": true,
          "internalType": "address",
          "name": "from",
          "type": "address"
        },
        {
          "indexed": true,
          "internalType": "address",
          "name": "to",
          "type": "address"
        },
        {
          "indexed": false,
          "internalType": "uint256",
          "name": "value",
          "type": "uint256"
        }
      ],
      "name": "Transfer",
      "type": "event"
    },
    {
      "payable": true,
      "stateMutability": "payable",
      "type": "fallback"
    },
    {
      "constant": true,
      "inputs": [
        {
          "internalType": "address",
          "name": "owner",
          "type": "address"
        },
        {
          "internalType": "address",
          "name": "spender",
          "type": "address"
        }
      ],
      "name": "allowance",
      "outputs": [
        {
          "internalType": "uint256",
          "name": "",
          "type": "uint256"
        }
      ],
      "payable": false,
      "stateMutability": "view",
      "type": "function"
    },
    {
      "constant": false,
      "inputs": [
        {
          "internalType": "address",
          "name": "spender",
          "type": "address"
        },
        {
          "internalType": "uint256",
          "name": "amount",
          "type": "uint256"
        }
      ],
      "name": "approve",
      "outputs": [
        {
          "internalType": "bool",
          "name": "",
          "type": "bool"
        }
      ],
      "payable": false,
      "stateMutability": "nonpayable",
      "type": "function"
    },
    {
      "constant": true,
      "inputs": [],
      "name": "authority",
      "outputs": [
        {
          "internalType": "contract DSAuthority",
          "name": "",
          "type": "address"
        }
      ],
      "payable": false,
      "stateMutability": "view",
      "type": "function"
    },
    {
      "constant": true,
      "inputs": [],
      "name": "automationFeePerc",
      "outputs": [
        {
          "internalType": "uint256",
          "name": "",
          "type": "uint256"
        }
      ],
      "payable": false,
      "stateMutability": "view",
      "type": "function"
    },
    {
      "constant": true,
      "inputs": [
        {
          "internalType": "address",
          "name": "account",
          "type": "address"
        }
      ],
      "name": "balanceOf",
      "outputs": [
        {
          "internalType": "uint256",
          "name": "",
          "type": "uint256"
        }
      ],
      "payable": false,
      "stateMutability": "view",
      "type": "function"
    },
    {
      "constant": true,
      "inputs": [],
      "name": "cache",
      "outputs": [
        {
          "internalType": "contract DSProxyCache",
          "name": "",
          "type": "address"
        }
      ],
      "payable": false,
      "stateMutability": "view",
      "type": "function"
    },
    {
      "constant": true,
      "inputs": [],
      "name": "cdpId",
      "outputs": [
        {
          "internalType": "uint256",
          "name": "",
          "type": "uint256"
        }
      ],
      "payable": false,
      "stateMutability": "view",
      "type": "function"
    },
    {
      "constant": true,
      "inputs": [],
      "name": "decimals",
      "outputs": [
        {
          "internalType": "uint8",
          "name": "",
          "type": "uint8"
        }
      ],
      "payable": false,
      "stateMutability": "view",
      "type": "function"
    },
    {
      "constant": false,
      "inputs": [
        {
          "internalType": "address",
          "name": "spender",
          "type": "address"
        },
        {
          "internalType": "uint256",
          "name": "subtractedValue",
          "type": "uint256"
        }
      ],
      "name": "decreaseAllowance",
      "outputs": [
        {
          "internalType": "bool",
          "name": "",
          "type": "bool"
        }
      ],
      "payable": false,
      "stateMutability": "nonpayable",
      "type": "function"
    },
    {
      "constant": true,
      "inputs": [],
      "name": "ethGemJoin",
      "outputs": [
        {
          "internalType": "address",
          "name": "",
          "type": "address"
        }
      ],
      "payable": false,
      "stateMutability": "view",
      "type": "function"
    },
    {
      "constant": false,
      "inputs": [
        {
          "internalType": "address",
          "name": "_target",
          "type": "address"
        },
        {
          "internalType": "bytes",
          "name": "_data",
          "type": "bytes"
        }
      ],
      "name": "execute",
      "outputs": [
        {
          "internalType": "bytes32",
          "name": "response",
          "type": "bytes32"
        }
      ],
      "payable": true,
      "stateMutability": "payable",
      "type": "function"
    },
    {
      "constant": false,
      "inputs": [
        {
          "internalType": "bytes",
          "name": "_code",
          "type": "bytes"
        },
        {
          "internalType": "bytes",
          "name": "_data",
          "type": "bytes"
        }
      ],
      "name": "execute",
      "outputs": [
        {
          "internalType": "address",
          "name": "target",
          "type": "address"
        },
        {
          "internalType": "bytes32",
          "name": "response",
          "type": "bytes32"
        }
      ],
      "payable": true,
      "stateMutability": "payable",
      "type": "function"
    },
    {
      "constant": true,
      "inputs": [],
      "name": "gulper",
      "outputs": [
        {
          "internalType": "address payable",
          "name": "",
          "type": "address"
        }
      ],
      "payable": false,
      "stateMutability": "view",
      "type": "function"
    },
    {
      "constant": false,
      "inputs": [
        {
          "internalType": "address",
          "name": "spender",
          "type": "address"
        },
        {
          "internalType": "uint256",
          "name": "addedValue",
          "type": "uint256"
        }
      ],
      "name": "increaseAllowance",
      "outputs": [
        {
          "internalType": "bool",
          "name": "",
          "type": "bool"
        }
      ],
      "payable": false,
      "stateMutability": "nonpayable",
      "type": "function"
    },
    {
      "constant": true,
      "inputs": [],
      "name": "makerManager",
      "outputs": [
        {
          "internalType": "address",
          "name": "",
          "type": "address"
        }
      ],
      "payable": false,
      "stateMutability": "view",
      "type": "function"
    },
    {
      "constant": true,
      "inputs": [],
      "name": "minRedemptionRatio",
      "outputs": [
        {
          "internalType": "uint256",
          "name": "",
          "type": "uint256"
        }
      ],
      "payable": false,
      "stateMutability": "view",
      "type": "function"
    },
    {
      "constant": true,
      "inputs": [],
      "name": "name",
      "outputs": [
        {
          "internalType": "string",
          "name": "",
          "type": "string"
        }
      ],
      "payable": false,
      "stateMutability": "view",
      "type": "function"
    },
    {
      "constant": true,
      "inputs": [],
      "name": "oracle",
      "outputs": [
        {
          "internalType": "contract Oracle",
          "name": "",
          "type": "address"
        }
      ],
      "payable": false,
      "stateMutability": "view",
      "type": "function"
    },
    {
      "constant": true,
      "inputs": [],
      "name": "owner",
      "outputs": [
        {
          "internalType": "address",
          "name": "",
          "type": "address"
        }
      ],
      "payable": false,
      "stateMutability": "view",
      "type": "function"
    },
    {
      "constant": true,
      "inputs": [],
      "name": "saverProxy",
      "outputs": [
        {
          "internalType": "contract IMCDSaverProxy",
          "name": "",
          "type": "address"
        }
      ],
      "payable": false,
      "stateMutability": "view",
      "type": "function"
    },
    {
      "constant": true,
      "inputs": [],
      "name": "saverProxyActions",
      "outputs": [
        {
          "internalType": "address",
          "name": "",
          "type": "address"
        }
      ],
      "payable": false,
      "stateMutability": "view",
      "type": "function"
    },
    {
      "constant": false,
      "inputs": [
        {
          "internalType": "contract DSAuthority",
          "name": "authority_",
          "type": "address"
        }
      ],
      "name": "setAuthority",
      "outputs": [],
      "payable": false,
      "stateMutability": "nonpayable",
      "type": "function"
    },
    {
      "constant": false,
      "inputs": [
        {
          "internalType": "address",
          "name": "_cacheAddr",
          "type": "address"
        }
      ],
      "name": "setCache",
      "outputs": [
        {
          "internalType": "bool",
          "name": "",
          "type": "bool"
        }
      ],
      "payable": true,
      "stateMutability": "payable",
      "type": "function"
    },
    {
      "constant": false,
      "inputs": [
        {
          "internalType": "address",
          "name": "owner_",
          "type": "address"
        }
      ],
      "name": "setOwner",
      "outputs": [],
      "payable": false,
      "stateMutability": "nonpayable",
      "type": "function"
    },
    {
      "constant": true,
      "inputs": [],
      "name": "symbol",
      "outputs": [
        {
          "internalType": "string",
          "name": "",
          "type": "string"
        }
      ],
      "payable": false,
      "stateMutability": "view",
      "type": "function"
    },
    {
      "constant": true,
      "inputs": [],
      "name": "totalSupply",
      "outputs": [
        {
          "internalType": "uint256",
          "name": "",
          "type": "uint256"
        }
      ],
      "payable": false,
      "stateMutability": "view",
      "type": "function"
    },
    {
      "constant": false,
      "inputs": [
        {
          "internalType": "address",
          "name": "recipient",
          "type": "address"
        },
        {
          "internalType": "uint256",
          "name": "amount",
          "type": "uint256"
        }
      ],
      "name": "transfer",
      "outputs": [
        {
          "internalType": "bool",
          "name": "",
          "type": "bool"
        }
      ],
      "payable": false,
      "stateMutability": "nonpayable",
      "type": "function"
    },
    {
      "constant": false,
      "inputs": [
        {
          "internalType": "address",
          "name": "sender",
          "type": "address"
        },
        {
          "internalType": "address",
          "name": "recipient",
          "type": "address"
        },
        {
          "internalType": "uint256",
          "name": "amount",
          "type": "uint256"
        }
      ],
      "name": "transferFrom",
      "outputs": [
        {
          "internalType": "bool",
          "name": "",
          "type": "bool"
        }
      ],
      "payable": false,
      "stateMutability": "nonpayable",
      "type": "function"
    },
    {
      "constant": false,
      "inputs": [
        {
          "internalType": "address payable",
          "name": "_newGulper",
          "type": "address"
        }
      ],
      "name": "changeGulper",
      "outputs": [],
      "payable": false,
      "stateMutability": "nonpayable",
      "type": "function"
    },
    {
      "constant": false,
      "inputs": [
        {
          "internalType": "address",
          "name": "_dsProxy",
          "type": "address"
        }
      ],
      "name": "giveCDPToDSProxy",
      "outputs": [],
      "payable": false,
      "stateMutability": "nonpayable",
      "type": "function"
    },
    {
      "constant": true,
      "inputs": [],
      "name": "getCollateral",
      "outputs": [
        {
          "internalType": "uint256",
          "name": "_price",
          "type": "uint256"
        },
        {
          "internalType": "uint256",
          "name": "_totalCollateral",
          "type": "uint256"
        },
        {
          "internalType": "uint256",
          "name": "_debt",
          "type": "uint256"
        },
        {
          "internalType": "uint256",
          "name": "_collateralDenominatedDebt",
          "type": "uint256"
        },
        {
          "internalType": "uint256",
          "name": "_excessCollateral",
          "type": "uint256"
        }
      ],
      "payable": false,
      "stateMutability": "view",
      "type": "function"
    },
    {
      "constant": true,
      "inputs": [],
      "name": "getCollateralPriceRAY",
      "outputs": [
        {
          "internalType": "uint256",
          "name": "_price",
          "type": "uint256"
        }
      ],
      "payable": false,
      "stateMutability": "view",
      "type": "function"
    },
    {
      "constant": true,
      "inputs": [],
      "name": "getExcessCollateral",
      "outputs": [
        {
          "internalType": "uint256",
          "name": "_excessCollateral",
          "type": "uint256"
        }
      ],
      "payable": false,
      "stateMutability": "view",
      "type": "function"
    },
    {
      "constant": true,
      "inputs": [],
      "name": "getRatio",
      "outputs": [
        {
          "internalType": "uint256",
          "name": "_ratio",
          "type": "uint256"
        }
      ],
      "payable": false,
      "stateMutability": "view",
      "type": "function"
    },
    {
      "constant": true,
      "inputs": [],
      "name": "getMinRedemptionRatio",
      "outputs": [
        {
          "internalType": "uint256",
          "name": "_minRatio",
          "type": "uint256"
        }
      ],
      "payable": false,
      "stateMutability": "view",
      "type": "function"
    },
    {
      "constant": true,
      "inputs": [
        {
          "internalType": "uint256",
          "name": "_suppliedCollateral",
          "type": "uint256"
        }
      ],
      "name": "calculateIssuanceAmount",
      "outputs": [
        {
          "internalType": "uint256",
          "name": "_protocolFee",
          "type": "uint256"
        },
        {
          "internalType": "uint256",
          "name": "_automationFee",
          "type": "uint256"
        },
        {
          "internalType": "uint256",
          "name": "_actualCollateralAdded",
          "type": "uint256"
        },
        {
          "internalType": "uint256",
          "name": "_accreditedCollateral",
          "type": "uint256"
        },
        {
          "internalType": "uint256",
          "name": "_tokensIssued",
          "type": "uint256"
        }
      ],
      "payable": false,
      "stateMutability": "view",
      "type": "function"
    },
    {
      "constant": false,
      "inputs": [
        {
          "internalType": "address",
          "name": "_receiver",
          "type": "address"
        }
      ],
      "name": "squanderMyEthForWorthlessBeans",
      "outputs": [],
      "payable": true,
      "stateMutability": "payable",
      "type": "function"
    },
    {
      "constant": true,
      "inputs": [
        {
          "internalType": "uint256",
          "name": "_tokensToRedeem",
          "type": "uint256"
        }
      ],
      "name": "calculateRedemptionValue",
      "outputs": [
        {
          "internalType": "uint256",
          "name": "_protocolFee",
          "type": "uint256"
        },
        {
          "internalType": "uint256",
          "name": "_automationFee",
          "type": "uint256"
        },
        {
          "internalType": "uint256",
          "name": "_collateralRedeemed",
          "type": "uint256"
        },
        {
          "internalType": "uint256",
          "name": "_collateralReturned",
          "type": "uint256"
        }
      ],
      "payable": false,
      "stateMutability": "view",
      "type": "function"
    },
    {
      "constant": false,
      "inputs": [
        {
          "internalType": "address",
          "name": "_receiver",
          "type": "address"
        },
        {
          "internalType": "uint256",
          "name": "_tokensToRedeem",
          "type": "uint256"
        }
      ],
      "name": "redeem",
      "outputs": [],
      "payable": false,
      "stateMutability": "nonpayable",
      "type": "function"
    },
    {
      "constant": false,
      "inputs": [
        {
          "internalType": "uint256",
          "name": "_repaymentRatio",
          "type": "uint256"
        },
        {
          "internalType": "uint256",
          "name": "_targetRatio",
          "type": "uint256"
        },
        {
          "internalType": "uint256",
          "name": "_boostRatio",
          "type": "uint256"
        },
        {
          "internalType": "uint256",
          "name": "_minRedemptionRatio",
          "type": "uint256"
        },
        {
          "internalType": "uint256",
          "name": "_automationFeePerc",
          "type": "uint256"
        }
      ],
      "name": "automate",
      "outputs": [],
      "payable": false,
      "stateMutability": "nonpayable",
      "type": "function"
    },
    {
      "constant": false,
      "inputs": [],
      "name": "moveVatEthToCDP",
      "outputs": [],
      "payable": false,
      "stateMutability": "nonpayable",
      "type": "function"
    }
  ],
  "bytecode": "0x60806040523480156200001157600080fd5b5060405162005c2d38038062005c2d83398181016040526101608110156200003857600080fd5b810190808051906020019092919080519060200190929190805190602001909291908051906020019092919080519060200190929190805190602001909291908051906020019092919080519060200190929190805190602001909291908051906020019092919080519060200190929190505050896040518060400160405280600d81526020017f44657269766564204574686572000000000000000000000000000000000000008152506040518060400160405280600481526020017f64457468000000000000000000000000000000000000000000000000000000008152506012826000908051906020019062000134929190620011e1565b5081600190805190602001906200014d929190620011e1565b5080600260006101000a81548160ff021916908360ff16021790555050505033600760006101000a81548173ffffffffffffffffffffffffffffffffffffffff021916908373ffffffffffffffffffffffffffffffffffffffff1602179055503373ffffffffffffffffffffffffffffffffffffffff167fce241d7ca1f669fee44b6fc00b8eba2df3bb514eed0f6f668f8f89096e81ed9460405160405180910390a262000201816200076d60201b60201c565b6200020b57600080fd5b508a600960006101000a81548173ffffffffffffffffffffffffffffffffffffffff021916908373ffffffffffffffffffffffffffffffffffffffff16021790555088600a8190555087600b60006101000a81548173ffffffffffffffffffffffffffffffffffffffff021916908373ffffffffffffffffffffffffffffffffffffffff16021790555086600c60006101000a81548173ffffffffffffffffffffffffffffffffffffffff021916908373ffffffffffffffffffffffffffffffffffffffff16021790555085600d60006101000a81548173ffffffffffffffffffffffffffffffffffffffff021916908373ffffffffffffffffffffffffffffffffffffffff16021790555084600e60006101000a81548173ffffffffffffffffffffffffffffffffffffffff021916908373ffffffffffffffffffffffffffffffffffffffff16021790555083600f60006101000a81548173ffffffffffffffffffffffffffffffffffffffff021916908373ffffffffffffffffffffffffffffffffffffffff16021790555060a0601081905550662386f26fc10000601181905550620003d083620003c4620008eb60201b60201c565b6200091260201b60201c565b60008273ffffffffffffffffffffffffffffffffffffffff166365688cc96040518163ffffffff1660e01b8152600401602060405180830381600087803b1580156200041b57600080fd5b505af115801562000430573d6000803e3d6000fd5b505050506040513d60208110156200044757600080fd5b810190808051906020019092919050505090508073ffffffffffffffffffffffffffffffffffffffff1663cbeea68c8330604051808062005bdb60319139603101905060405180910390206040518463ffffffff1660e01b8152600401808473ffffffffffffffffffffffffffffffffffffffff1673ffffffffffffffffffffffffffffffffffffffff1681526020018373ffffffffffffffffffffffffffffffffffffffff1673ffffffffffffffffffffffffffffffffffffffff168152602001827bffffffffffffffffffffffffffffffffffffffffffffffffffffffff191681526020019350505050600060405180830381600087803b1580156200054e57600080fd5b505af115801562000563573d6000803e3d6000fd5b50505050620005788162000ade60201b60201c565b600660009054906101000a900473ffffffffffffffffffffffffffffffffffffffff1673ffffffffffffffffffffffffffffffffffffffff1663b70096138330604051808062005bdb60319139603101905060405180910390206040518463ffffffff1660e01b8152600401808473ffffffffffffffffffffffffffffffffffffffff1673ffffffffffffffffffffffffffffffffffffffff1681526020018373ffffffffffffffffffffffffffffffffffffffff1673ffffffffffffffffffffffffffffffffffffffff168152602001827bffffffffffffffffffffffffffffffffffffffffffffffffffffffff19167bffffffffffffffffffffffffffffffffffffffffffffffffffffffff19168152602001935050505060206040518083038186803b158015620006ab57600080fd5b505afa158015620006c0573d6000803e3d6000fd5b505050506040513d6020811015620006d757600080fd5b81019080805190602001909291905050506200075b576040517f08c379a00000000000000000000000000000000000000000000000000000000081526004018080602001828103825260148152602001807f67756172642073657474696e67206661696c656400000000000000000000000081525060200191505060405180910390fd5b50505050505050505050505062001290565b6000620007a5336000357fffffffff000000000000000000000000000000000000000000000000000000001662000bc760201b60201c565b620007af57600080fd5b6000806004359150602435905080823373ffffffffffffffffffffffffffffffffffffffff166000357fffffffff00000000000000000000000000000000000000000000000000000000167bffffffffffffffffffffffffffffffffffffffffffffffffffffffff19163460003660405180848152602001806020018281038252848482818152602001925080828437600081840152601f19601f82011690508083019250505094505050505060405180910390a4600073ffffffffffffffffffffffffffffffffffffffff168473ffffffffffffffffffffffffffffffffffffffff1614156200089f57600080fd5b83600860006101000a81548173ffffffffffffffffffffffffffffffffffffffff021916908373ffffffffffffffffffffffffffffffffffffffff160217905550600192505050919050565b6000620008fd62000e2b60201b60201c565b90919293509091925090915090508091505090565b600073ffffffffffffffffffffffffffffffffffffffff168273ffffffffffffffffffffffffffffffffffffffff161415620009b6576040517f08c379a000000000000000000000000000000000000000000000000000000000815260040180806020018281038252601f8152602001807f45524332303a206d696e7420746f20746865207a65726f20616464726573730081525060200191505060405180910390fd5b620009d28160055462000f5060201b620045461790919060201c565b60058190555062000a3181600360008573ffffffffffffffffffffffffffffffffffffffff1673ffffffffffffffffffffffffffffffffffffffff1681526020019081526020016000205462000f5060201b620045461790919060201c565b600360008473ffffffffffffffffffffffffffffffffffffffff1673ffffffffffffffffffffffffffffffffffffffff168152602001908152602001600020819055508173ffffffffffffffffffffffffffffffffffffffff16600073ffffffffffffffffffffffffffffffffffffffff167fddf252ad1be2c89b69c2b068fc378daa952ba7f163c4a11628f55a4df523b3ef836040518082815260200191505060405180910390a35050565b62000b14336000357fffffffff000000000000000000000000000000000000000000000000000000001662000bc760201b60201c565b62000b1e57600080fd5b80600660006101000a81548173ffffffffffffffffffffffffffffffffffffffff021916908373ffffffffffffffffffffffffffffffffffffffff160217905550600660009054906101000a900473ffffffffffffffffffffffffffffffffffffffff1673ffffffffffffffffffffffffffffffffffffffff167f1abebea81bfa2637f28358c371278fb15ede7ea8dd28d2e03b112ff6d936ada460405160405180910390a250565b60003073ffffffffffffffffffffffffffffffffffffffff168373ffffffffffffffffffffffffffffffffffffffff16141562000c08576001905062000e25565b600760009054906101000a900473ffffffffffffffffffffffffffffffffffffffff1673ffffffffffffffffffffffffffffffffffffffff168373ffffffffffffffffffffffffffffffffffffffff16141562000c69576001905062000e25565b600073ffffffffffffffffffffffffffffffffffffffff16600660009054906101000a900473ffffffffffffffffffffffffffffffffffffffff1673ffffffffffffffffffffffffffffffffffffffff16141562000ccb576000905062000e25565b600660009054906101000a900473ffffffffffffffffffffffffffffffffffffffff1673ffffffffffffffffffffffffffffffffffffffff1663b70096138430856040518463ffffffff1660e01b8152600401808473ffffffffffffffffffffffffffffffffffffffff1673ffffffffffffffffffffffffffffffffffffffff1681526020018373ffffffffffffffffffffffffffffffffffffffff1673ffffffffffffffffffffffffffffffffffffffff168152602001827bffffffffffffffffffffffffffffffffffffffffffffffffffffffff19167bffffffffffffffffffffffffffffffffffffffffffffffffffffffff19168152602001935050505060206040518083038186803b15801562000de557600080fd5b505afa15801562000dfa573d6000803e3d6000fd5b505050506040513d602081101562000e1157600080fd5b810190808051906020019092919050505090505b92915050565b600080600080600062000e4362000fd960201b60201c565b9450600d60009054906101000a900473ffffffffffffffffffffffffffffffffffffffff1673ffffffffffffffffffffffffffffffffffffffff1663e304c608600a546040518263ffffffff1660e01b81526004018082815260200191505060806040518083038186803b15801562000ebb57600080fd5b505afa15801562000ed0573d6000803e3d6000fd5b505050506040513d608081101562000ee757600080fd5b8101908080519060200190929190805190602001909291908051906020019092919080519060200190929190505050905050809450819550505062000f338386620010a360201b60201c565b915062000f478483620010f160201b60201c565b90509091929394565b60008082840190508381101562000fcf576040517f08c379a000000000000000000000000000000000000000000000000000000000815260040180806020018281038252601b8152602001807f536166654d6174683a206164646974696f6e206f766572666c6f77000000000081525060200191505060405180910390fd5b8091505092915050565b60006200109e633b9aca00600f60009054906101000a900473ffffffffffffffffffffffffffffffffffffffff1673ffffffffffffffffffffffffffffffffffffffff1663b0513c766040518163ffffffff1660e01b815260040160206040518083038186803b1580156200104d57600080fd5b505afa15801562001062573d6000803e3d6000fd5b505050506040513d60208110156200107957600080fd5b81019080805190602001909291905050506200110c60201b62003ef81790919060201c565b905090565b600081620010e0620010c8856b033b2e3c9fd0803ce80000006200119760201b60201c565b60028581620010d357fe5b04620011c660201b60201c565b81620010e857fe5b04905092915050565b60008282840391508111156200110657600080fd5b92915050565b60008083141562001121576000905062001191565b60008284029050828482816200113357fe5b04146200118c576040517f08c379a000000000000000000000000000000000000000000000000000000000815260040180806020018281038252602181526020018062005c0c6021913960400191505060405180910390fd5b809150505b92915050565b600080821480620011b65750828283850292508281620011b357fe5b04145b620011c057600080fd5b92915050565b6000828284019150811015620011db57600080fd5b92915050565b828054600181600116156101000203166002900490600052602060002090601f016020900481019282601f106200122457805160ff191683800117855562001255565b8280016001018555821562001255579182015b828111156200125457825182559160200191906001019062001237565b5b50905062001264919062001268565b5090565b6200128d91905b80821115620012895760008160009055506001016200126f565b5090565b90565b61493b80620012a06000396000f3fe6080604052600436106102465760003560e01c806360c7d29511610139578063a457c2d7116100b6578063cafce2561161007a578063cafce25614610fc6578063dd62ed3e14610fdd578063ea65212f14611062578063ebc723cb146110b3578063ec1ebd7a1461110a578063fb7f26721461113557610246565b8063a457c2d714610e07578063a4e3c31114610e7a578063a9059cbb14610ea5578063bf7e214f14610f18578063c70c82db14610f6f57610246565b80637dc0d1d0116100fd5780637dc0d1d014610c1c5780637edd39bc14610c735780638da5cb5b14610cc4578063948f507614610d1b57806395d89b4114610d7757610246565b806360c7d29514610a6157806364a0a12f14610ab857806370a0823114610b0f5780637a9e5e4b14610b745780637ae0a3d514610bc557610246565b80631f6a1eb9116101c7578063470052cc1161018b578063470052cc1461096e5780634a1a066b1461099957806358846c42146109c45780635ac0f2bb146109ef5780635c1548fb14610a1a57610246565b80631f6a1eb91461063b57806323b872dd146107d457806325c3d52514610867578063313ce567146108ca57806339509351146108fb57610246565b806313af40351161020e57806313af40351461041157806318160ddd146104625780631a82c8511461048d5780631cff79cd146104f15780631e9a6950146105e057610246565b8063024c233614610248578063026a9f931461027357806306fdde03146102b7578063095ea7b3146103475780630c730584146103ba575b005b34801561025457600080fd5b5061025d6111a0565b6040518082815260200191505060405180910390f35b6102b56004803603602081101561028957600080fd5b81019080803573ffffffffffffffffffffffffffffffffffffffff1690602001909291905050506111a6565b005b3480156102c357600080fd5b506102cc6115d4565b6040518080602001828103825283818151815260200191508051906020019080838360005b8381101561030c5780820151818401526020810190506102f1565b50505050905090810190601f1680156103395780820380516001836020036101000a031916815260200191505b509250505060405180910390f35b34801561035357600080fd5b506103a06004803603604081101561036a57600080fd5b81019080803573ffffffffffffffffffffffffffffffffffffffff16906020019092919080359060200190929190505050611676565b604051808215151515815260200191505060405180910390f35b3480156103c657600080fd5b506103cf611694565b604051808273ffffffffffffffffffffffffffffffffffffffff1673ffffffffffffffffffffffffffffffffffffffff16815260200191505060405180910390f35b34801561041d57600080fd5b506104606004803603602081101561043457600080fd5b81019080803573ffffffffffffffffffffffffffffffffffffffff1690602001909291905050506116ba565b005b34801561046e57600080fd5b5061047761179a565b6040518082815260200191505060405180910390f35b34801561049957600080fd5b506104c6600480360360208110156104b057600080fd5b81019080803590602001909291905050506117a4565b6040518085815260200184815260200183815260200182815260200194505050505060405180910390f35b6105ca6004803603604081101561050757600080fd5b81019080803573ffffffffffffffffffffffffffffffffffffffff1690602001909291908035906020019064010000000081111561054457600080fd5b82018360208201111561055657600080fd5b8035906020019184600183028401116401000000008311171561057857600080fd5b91908080601f016020809104026020016040519081016040528093929190818152602001838380828437600081840152601f19601f820116905080830192505050505050509192919290505050611926565b6040518082815260200191505060405180910390f35b3480156105ec57600080fd5b506106396004803603604081101561060357600080fd5b81019080803573ffffffffffffffffffffffffffffffffffffffff16906020019092919080359060200190929190505050611a82565b005b61078b6004803603604081101561065157600080fd5b810190808035906020019064010000000081111561066e57600080fd5b82018360208201111561068057600080fd5b803590602001918460018302840111640100000000831117156106a257600080fd5b91908080601f016020809104026020016040519081016040528093929190818152602001838380828437600081840152601f19601f8201169050808301925050505050505091929192908035906020019064010000000081111561070557600080fd5b82018360208201111561071757600080fd5b8035906020019184600183028401116401000000008311171561073957600080fd5b91908080601f016020809104026020016040519081016040528093929190818152602001838380828437600081840152601f19601f820116905080830192505050505050509192919290505050612023565b604051808373ffffffffffffffffffffffffffffffffffffffff1673ffffffffffffffffffffffffffffffffffffffff1681526020018281526020019250505060405180910390f35b3480156107e057600080fd5b5061084d600480360360608110156107f757600080fd5b81019080803573ffffffffffffffffffffffffffffffffffffffff169060200190929190803573ffffffffffffffffffffffffffffffffffffffff1690602001909291908035906020019092919050505061229b565b604051808215151515815260200191505060405180910390f35b34801561087357600080fd5b506108c8600480360360a081101561088a57600080fd5b810190808035906020019092919080359060200190929190803590602001909291908035906020019092919080359060200190929190505050612374565b005b3480156108d657600080fd5b506108df61269d565b604051808260ff1660ff16815260200191505060405180910390f35b34801561090757600080fd5b506109546004803603604081101561091e57600080fd5b81019080803573ffffffffffffffffffffffffffffffffffffffff169060200190929190803590602001909291905050506126b4565b604051808215151515815260200191505060405180910390f35b34801561097a57600080fd5b50610983612767565b6040518082815260200191505060405180910390f35b3480156109a557600080fd5b506109ae612827565b6040518082815260200191505060405180910390f35b3480156109d057600080fd5b506109d961282d565b6040518082815260200191505060405180910390f35b3480156109fb57600080fd5b50610a04612857565b6040518082815260200191505060405180910390f35b348015610a2657600080fd5b50610a2f61285d565b604051808681526020018581526020018481526020018381526020018281526020019550505050505060405180910390f35b348015610a6d57600080fd5b50610a76612967565b604051808273ffffffffffffffffffffffffffffffffffffffff1673ffffffffffffffffffffffffffffffffffffffff16815260200191505060405180910390f35b348015610ac457600080fd5b50610acd61298d565b604051808273ffffffffffffffffffffffffffffffffffffffff1673ffffffffffffffffffffffffffffffffffffffff16815260200191505060405180910390f35b348015610b1b57600080fd5b50610b5e60048036036020811015610b3257600080fd5b81019080803573ffffffffffffffffffffffffffffffffffffffff1690602001909291905050506129b3565b6040518082815260200191505060405180910390f35b348015610b8057600080fd5b50610bc360048036036020811015610b9757600080fd5b81019080803573ffffffffffffffffffffffffffffffffffffffff1690602001909291905050506129fc565b005b348015610bd157600080fd5b50610bda612adc565b604051808273ffffffffffffffffffffffffffffffffffffffff1673ffffffffffffffffffffffffffffffffffffffff16815260200191505060405180910390f35b348015610c2857600080fd5b50610c31612b02565b604051808273ffffffffffffffffffffffffffffffffffffffff1673ffffffffffffffffffffffffffffffffffffffff16815260200191505060405180910390f35b348015610c7f57600080fd5b50610cc260048036036020811015610c9657600080fd5b81019080803573ffffffffffffffffffffffffffffffffffffffff169060200190929190505050612b28565b005b348015610cd057600080fd5b50610cd9612ba3565b604051808273ffffffffffffffffffffffffffffffffffffffff1673ffffffffffffffffffffffffffffffffffffffff16815260200191505060405180910390f35b610d5d60048036036020811015610d3157600080fd5b81019080803573ffffffffffffffffffffffffffffffffffffffff169060200190929190505050612bc9565b604051808215151515815260200191505060405180910390f35b348015610d8357600080fd5b50610d8c612d3d565b6040518080602001828103825283818151815260200191508051906020019080838360005b83811015610dcc578082015181840152602081019050610db1565b50505050905090810190601f168015610df95780820380516001836020036101000a031916815260200191505b509250505060405180910390f35b348015610e1357600080fd5b50610e6060048036036040811015610e2a57600080fd5b81019080803573ffffffffffffffffffffffffffffffffffffffff16906020019092919080359060200190929190505050612ddf565b604051808215151515815260200191505060405180910390f35b348015610e8657600080fd5b50610e8f612eac565b6040518082815260200191505060405180910390f35b348015610eb157600080fd5b50610efe60048036036040811015610ec857600080fd5b81019080803573ffffffffffffffffffffffffffffffffffffffff16906020019092919080359060200190929190505050612ecb565b604051808215151515815260200191505060405180910390f35b348015610f2457600080fd5b50610f2d612ee9565b604051808273ffffffffffffffffffffffffffffffffffffffff1673ffffffffffffffffffffffffffffffffffffffff16815260200191505060405180910390f35b348015610f7b57600080fd5b50610f84612f0f565b604051808273ffffffffffffffffffffffffffffffffffffffff1673ffffffffffffffffffffffffffffffffffffffff16815260200191505060405180910390f35b348015610fd257600080fd5b50610fdb612f35565b005b348015610fe957600080fd5b5061104c6004803603604081101561100057600080fd5b81019080803573ffffffffffffffffffffffffffffffffffffffff169060200190929190803573ffffffffffffffffffffffffffffffffffffffff1690602001909291905050506132ec565b6040518082815260200191505060405180910390f35b34801561106e57600080fd5b506110b16004803603602081101561108557600080fd5b81019080803573ffffffffffffffffffffffffffffffffffffffff169060200190929190505050613373565b005b3480156110bf57600080fd5b506110c8613616565b604051808273ffffffffffffffffffffffffffffffffffffffff1673ffffffffffffffffffffffffffffffffffffffff16815260200191505060405180910390f35b34801561111657600080fd5b5061111f61363c565b6040518082815260200191505060405180910390f35b34801561114157600080fd5b5061116e6004803603602081101561115857600080fd5b81019080803590602001909291905050506137d0565b604051808681526020018581526020018481526020018381526020018281526020019550505050505060405180910390f35b60115481565b60008060008060006111b7346137d0565b945094509450945094506060600b60009054906101000a900473ffffffffffffffffffffffffffffffffffffffff16600c60009054906101000a900473ffffffffffffffffffffffffffffffffffffffff16600a54604051602401808473ffffffffffffffffffffffffffffffffffffffff1673ffffffffffffffffffffffffffffffffffffffff1681526020018373ffffffffffffffffffffffffffffffffffffffff1673ffffffffffffffffffffffffffffffffffffffff16815260200182815260200193505050506040516020818303038152906040527fe205c108000000000000000000000000000000000000000000000000000000007bffffffffffffffffffffffffffffffffffffffffffffffffffffffff19166020820180517bffffffffffffffffffffffffffffffffffffffffffffffffffffffff838183161783525050505090503073ffffffffffffffffffffffffffffffffffffffff16631cff79cd85600e60009054906101000a900473ffffffffffffffffffffffffffffffffffffffff16846040518463ffffffff1660e01b8152600401808373ffffffffffffffffffffffffffffffffffffffff1673ffffffffffffffffffffffffffffffffffffffff16815260200180602001828103825283818151815260200191508051906020019080838360005b838110156113c35780820151818401526020810190506113a8565b50505050905090810190601f1680156113f05780820380516001836020036101000a031916815260200191505b5093505050506020604051808303818588803b15801561140f57600080fd5b505af1158015611423573d6000803e3d6000fd5b50505050506040513d602081101561143a57600080fd5b8101908080519060200190929190505050506000600960009054906101000a900473ffffffffffffffffffffffffffffffffffffffff1673ffffffffffffffffffffffffffffffffffffffff168760405180600001905060006040518083038185875af1925050503d80600081146114ce576040519150601f19603f3d011682016040523d82523d6000602084013e6114d3565b606091505b505090508061152d576040517f08c379a00000000000000000000000000000000000000000000000000000000081526004018080602001828103825260268152602001806147546026913960400191505060405180910390fd5b61153788846138e1565b7f2982905875ae47bb92b8b1c9373efd845be807ed05fb869e3bbeab0d7a3b9ca088348989898989604051808873ffffffffffffffffffffffffffffffffffffffff1673ffffffffffffffffffffffffffffffffffffffff16815260200187815260200186815260200185815260200184815260200183815260200182815260200197505050505050505060405180910390a15050505050505050565b606060008054600181600116156101000203166002900480601f01602080910402602001604051908101604052809291908181526020018280546001816001161561010002031660029004801561166c5780601f106116415761010080835404028352916020019161166c565b820191906000526020600020905b81548152906001019060200180831161164f57829003601f168201915b5050505050905090565b600061168a611683613a9e565b8484613aa6565b6001905092915050565b600960009054906101000a900473ffffffffffffffffffffffffffffffffffffffff1681565b6116e8336000357fffffffff0000000000000000000000000000000000000000000000000000000016613c9d565b6116f157600080fd5b80600760006101000a81548173ffffffffffffffffffffffffffffffffffffffff021916908373ffffffffffffffffffffffffffffffffffffffff160217905550600760009054906101000a900473ffffffffffffffffffffffffffffffffffffffff1673ffffffffffffffffffffffffffffffffffffffff167fce241d7ca1f669fee44b6fc00b8eba2df3bb514eed0f6f668f8f89096e81ed9460405160405180910390a250565b6000600554905090565b6000806000806117b261179a565b85111561180a576040517f08c379a000000000000000000000000000000000000000000000000000000000815260040180806020018281038252602581526020018061479c6025913960400191505060405180910390fd5b600061184061181761179a565b611832670de0b6b3a764000089613ef890919063ffffffff16565b613f7e90919063ffffffff16565b90506000611878670de0b6b3a764000061186a8461185c612eac565b613ef890919063ffffffff16565b613f7e90919063ffffffff16565b90506118ae670de0b6b3a76400006118a0661ff973cafa800084613ef890919063ffffffff16565b613f7e90919063ffffffff16565b95506118df670de0b6b3a76400006118d160115484613ef890919063ffffffff16565b613f7e90919063ffffffff16565b94506118f48582613fc890919063ffffffff16565b935061191b8561190d8884613fc890919063ffffffff16565b613fc890919063ffffffff16565b925050509193509193565b6000611956336000357fffffffff0000000000000000000000000000000000000000000000000000000016613c9d565b61195f57600080fd5b6000806004359150602435905080823373ffffffffffffffffffffffffffffffffffffffff166000357fffffffff00000000000000000000000000000000000000000000000000000000167bffffffffffffffffffffffffffffffffffffffffffffffffffffffff19163460003660405180848152602001806020018281038252848482818152602001925080828437600081840152601f19601f82011690508083019250505094505050505060405180910390a4600073ffffffffffffffffffffffffffffffffffffffff168573ffffffffffffffffffffffffffffffffffffffff161415611a4e57600080fd5b60206000855160208701886113885a03f46000519350801560018114611a7357611a78565b600080fd5b5050505092915050565b600080600080611a91856117a4565b93509350935093506060600b60009054906101000a900473ffffffffffffffffffffffffffffffffffffffff16600c60009054906101000a900473ffffffffffffffffffffffffffffffffffffffff16600a5485604051602401808573ffffffffffffffffffffffffffffffffffffffff1673ffffffffffffffffffffffffffffffffffffffff1681526020018473ffffffffffffffffffffffffffffffffffffffff1673ffffffffffffffffffffffffffffffffffffffff1681526020018381526020018281526020019450505050506040516020818303038152906040527f7b5a3b43000000000000000000000000000000000000000000000000000000007bffffffffffffffffffffffffffffffffffffffffffffffffffffffff19166020820180517bffffffffffffffffffffffffffffffffffffffffffffffffffffffff838183161783525050505090503073ffffffffffffffffffffffffffffffffffffffff16631cff79cd600e60009054906101000a900473ffffffffffffffffffffffffffffffffffffffff16836040518363ffffffff1660e01b8152600401808373ffffffffffffffffffffffffffffffffffffffff1673ffffffffffffffffffffffffffffffffffffffff16815260200180602001828103825283818151815260200191508051906020019080838360005b83811015611ca2578082015181840152602081019050611c87565b50505050905090810190601f168015611ccf5780820380516001836020036101000a031916815260200191505b509350505050602060405180830381600087803b158015611cef57600080fd5b505af1158015611d03573d6000803e3d6000fd5b505050506040513d6020811015611d1957600080fd5b810190808051906020019092919050505050611d353387614012565b6000600960009054906101000a900473ffffffffffffffffffffffffffffffffffffffff1673ffffffffffffffffffffffffffffffffffffffff168660405180600001905060006040518083038185875af1925050503d8060008114611db7576040519150601f19603f3d011682016040523d82523d6000602084013e611dbc565b606091505b5050905080611e16576040517f08c379a00000000000000000000000000000000000000000000000000000000081526004018080602001828103825260268152602001806147546026913960400191505060405180910390fd5b60008873ffffffffffffffffffffffffffffffffffffffff168460405180600001905060006040518083038185875af1925050503d8060008114611e76576040519150601f19603f3d011682016040523d82523d6000602084013e611e7b565b606091505b5050905080611ef2576040517f08c379a00000000000000000000000000000000000000000000000000000000081526004018080602001828103825260148152602001807f657468207061796d656e7420726576657274656400000000000000000000000081525060200191505060405180910390fd5b611efa61282d565b611f0261363c565b1015611f59576040517f08c379a00000000000000000000000000000000000000000000000000000000081526004018080602001828103825260268152602001806148096026913960400191505060405180910390fd5b7f347ee37487f7d4fe0b4d3777823c6a71c110e3df43f4f3d35356cf6909e9abdb338a8a8a8a8a8a604051808873ffffffffffffffffffffffffffffffffffffffff1673ffffffffffffffffffffffffffffffffffffffff1681526020018773ffffffffffffffffffffffffffffffffffffffff1673ffffffffffffffffffffffffffffffffffffffff16815260200186815260200185815260200184815260200183815260200182815260200197505050505050505060405180910390a1505050505050505050565b600080600860009054906101000a900473ffffffffffffffffffffffffffffffffffffffff1673ffffffffffffffffffffffffffffffffffffffff16638bf4515c856040518263ffffffff1660e01b81526004018080602001828103825283818151815260200191508051906020019080838360005b838110156120b4578082015181840152602081019050612099565b50505050905090810190601f1680156120e15780820380516001836020036101000a031916815260200191505b509250505060206040518083038186803b1580156120fe57600080fd5b505afa158015612112573d6000803e3d6000fd5b505050506040513d602081101561212857600080fd5b81019080805190602001909291905050509150600073ffffffffffffffffffffffffffffffffffffffff168273ffffffffffffffffffffffffffffffffffffffff16141561228857600860009054906101000a900473ffffffffffffffffffffffffffffffffffffffff1673ffffffffffffffffffffffffffffffffffffffff16637ed0c3b2856040518263ffffffff1660e01b81526004018080602001828103825283818151815260200191508051906020019080838360005b838110156121fe5780820151818401526020810190506121e3565b50505050905090810190601f16801561222b5780820380516001836020036101000a031916815260200191505b5092505050602060405180830381600087803b15801561224a57600080fd5b505af115801561225e573d6000803e3d6000fd5b505050506040513d602081101561227457600080fd5b810190808051906020019092919050505091505b6122928284611926565b90509250929050565b60006122a88484846141cc565b612369846122b4613a9e565b6123648560405180606001604052806028815260200161485060289139600460008b73ffffffffffffffffffffffffffffffffffffffff1673ffffffffffffffffffffffffffffffffffffffff168152602001908152602001600020600061231a613a9e565b73ffffffffffffffffffffffffffffffffffffffff1673ffffffffffffffffffffffffffffffffffffffff168152602001908152602001600020546144869092919063ffffffff16565b613aa6565b600190509392505050565b6123a2336000357fffffffff0000000000000000000000000000000000000000000000000000000016613c9d565b6123ab57600080fd5b600073d6f2125bf7fe2bc793de7685ea7ded8bff3917dd9050600073c45d4f6b6bf41b6edaa58b01c4298b8d9078269a905083601081905550826011819055506060600a54662386f26fc100008902662386f26fc100008802662386f26fc100008a02662386f26fc100008b02600180886040516024018089815260200188815260200187815260200186815260200185815260200184151515158152602001831515151581526020018273ffffffffffffffffffffffffffffffffffffffff1673ffffffffffffffffffffffffffffffffffffffff168152602001985050505050505050506040516020818303038152906040527ff086597d000000000000000000000000000000000000000000000000000000007bffffffffffffffffffffffffffffffffffffffffffffffffffffffff19166020820180517bffffffffffffffffffffffffffffffffffffffffffffffffffffffff838183161783525050505090503073ffffffffffffffffffffffffffffffffffffffff16631cff79cd84836040518363ffffffff1660e01b8152600401808373ffffffffffffffffffffffffffffffffffffffff1673ffffffffffffffffffffffffffffffffffffffff16815260200180602001828103825283818151815260200191508051906020019080838360005b838110156125af578082015181840152602081019050612594565b50505050905090810190601f1680156125dc5780820380516001836020036101000a031916815260200191505b509350505050602060405180830381600087803b1580156125fc57600080fd5b505af1158015612610573d6000803e3d6000fd5b505050506040513d602081101561262657600080fd5b8101908080519060200190929190505050507f161a0a2eba84d426e8039cf796b01f06757f97a8afbd025a14ef8de4903113ec888888601054601154604051808681526020018581526020018481526020018381526020018281526020019550505050505060405180910390a15050505050505050565b6000600260009054906101000a900460ff16905090565b600061275d6126c1613a9e565b8461275885600460006126d2613a9e565b73ffffffffffffffffffffffffffffffffffffffff1673ffffffffffffffffffffffffffffffffffffffff16815260200190815260200160002060008973ffffffffffffffffffffffffffffffffffffffff1673ffffffffffffffffffffffffffffffffffffffff1681526020019081526020016000205461454690919063ffffffff16565b613aa6565b6001905092915050565b6000612822633b9aca00600f60009054906101000a900473ffffffffffffffffffffffffffffffffffffffff1673ffffffffffffffffffffffffffffffffffffffff1663b0513c766040518163ffffffff1660e01b815260040160206040518083038186803b1580156127d957600080fd5b505afa1580156127ed573d6000803e3d6000fd5b505050506040513d602081101561280357600080fd5b8101908080519060200190929190505050613ef890919063ffffffff16565b905090565b600a5481565b600061285261284b633b9aca00601054613ef890919063ffffffff16565b60646145ce565b905090565b60105481565b600080600080600061286d612767565b9450600d60009054906101000a900473ffffffffffffffffffffffffffffffffffffffff1673ffffffffffffffffffffffffffffffffffffffff1663e304c608600a546040518263ffffffff1660e01b81526004018082815260200191505060806040518083038186803b1580156128e457600080fd5b505afa1580156128f8573d6000803e3d6000fd5b505050506040513d608081101561290e57600080fd5b8101908080519060200190929190805190602001909291908051906020019092919080519060200190929190505050905050809450819550505061295283866145ce565b915061295e848361460a565b90509091929394565b600860009054906101000a900473ffffffffffffffffffffffffffffffffffffffff1681565b600c60009054906101000a900473ffffffffffffffffffffffffffffffffffffffff1681565b6000600360008373ffffffffffffffffffffffffffffffffffffffff1673ffffffffffffffffffffffffffffffffffffffff168152602001908152602001600020549050919050565b612a2a336000357fffffffff0000000000000000000000000000000000000000000000000000000016613c9d565b612a3357600080fd5b80600660006101000a81548173ffffffffffffffffffffffffffffffffffffffff021916908373ffffffffffffffffffffffffffffffffffffffff160217905550600660009054906101000a900473ffffffffffffffffffffffffffffffffffffffff1673ffffffffffffffffffffffffffffffffffffffff167f1abebea81bfa2637f28358c371278fb15ede7ea8dd28d2e03b112ff6d936ada460405160405180910390a250565b600b60009054906101000a900473ffffffffffffffffffffffffffffffffffffffff1681565b600f60009054906101000a900473ffffffffffffffffffffffffffffffffffffffff1681565b612b56336000357fffffffff0000000000000000000000000000000000000000000000000000000016613c9d565b612b5f57600080fd5b80600960006101000a81548173ffffffffffffffffffffffffffffffffffffffff021916908373ffffffffffffffffffffffffffffffffffffffff16021790555050565b600760009054906101000a900473ffffffffffffffffffffffffffffffffffffffff1681565b6000612bf9336000357fffffffff0000000000000000000000000000000000000000000000000000000016613c9d565b612c0257600080fd5b6000806004359150602435905080823373ffffffffffffffffffffffffffffffffffffffff166000357fffffffff00000000000000000000000000000000000000000000000000000000167bffffffffffffffffffffffffffffffffffffffffffffffffffffffff19163460003660405180848152602001806020018281038252848482818152602001925080828437600081840152601f19601f82011690508083019250505094505050505060405180910390a4600073ffffffffffffffffffffffffffffffffffffffff168473ffffffffffffffffffffffffffffffffffffffff161415612cf157600080fd5b83600860006101000a81548173ffffffffffffffffffffffffffffffffffffffff021916908373ffffffffffffffffffffffffffffffffffffffff160217905550600192505050919050565b606060018054600181600116156101000203166002900480601f016020809104026020016040519081016040528092919081815260200182805460018160011615610100020316600290048015612dd55780601f10612daa57610100808354040283529160200191612dd5565b820191906000526020600020905b815481529060010190602001808311612db857829003601f168201915b5050505050905090565b6000612ea2612dec613a9e565b84612e9d856040518060600160405280602581526020016148e26025913960046000612e16613a9e565b73ffffffffffffffffffffffffffffffffffffffff1673ffffffffffffffffffffffffffffffffffffffff16815260200190815260200160002060008a73ffffffffffffffffffffffffffffffffffffffff1673ffffffffffffffffffffffffffffffffffffffff168152602001908152602001600020546144869092919063ffffffff16565b613aa6565b6001905092915050565b6000612eb661285d565b90919293509091925090915090508091505090565b6000612edf612ed8613a9e565b84846141cc565b6001905092915050565b600660009054906101000a900473ffffffffffffffffffffffffffffffffffffffff1681565b600e60009054906101000a900473ffffffffffffffffffffffffffffffffffffffff1681565b6000600b60009054906101000a900473ffffffffffffffffffffffffffffffffffffffff1673ffffffffffffffffffffffffffffffffffffffff166361d782626040518163ffffffff1660e01b815260040160206040518083038186803b158015612f9f57600080fd5b505afa158015612fb3573d6000803e3d6000fd5b505050506040513d6020811015612fc957600080fd5b810190808051906020019092919050505073ffffffffffffffffffffffffffffffffffffffff16632424be5c600a5460001b306040518363ffffffff1660e01b8152600401808381526020018273ffffffffffffffffffffffffffffffffffffffff1673ffffffffffffffffffffffffffffffffffffffff1681526020019250505060206040518083038186803b15801561306357600080fd5b505afa158015613077573d6000803e3d6000fd5b505050506040513d602081101561308d57600080fd5b810190808051906020019092919050505090506060600b60009054906101000a900473ffffffffffffffffffffffffffffffffffffffff16600a54600084604051602401808573ffffffffffffffffffffffffffffffffffffffff1673ffffffffffffffffffffffffffffffffffffffff1681526020018481526020018360ff1681526020018281526020019450505050506040516020818303038152906040527f96e8d72c000000000000000000000000000000000000000000000000000000007bffffffffffffffffffffffffffffffffffffffffffffffffffffffff19166020820180517bffffffffffffffffffffffffffffffffffffffffffffffffffffffff838183161783525050505090503073ffffffffffffffffffffffffffffffffffffffff16631cff79cd600e60009054906101000a900473ffffffffffffffffffffffffffffffffffffffff16836040518363ffffffff1660e01b8152600401808373ffffffffffffffffffffffffffffffffffffffff1673ffffffffffffffffffffffffffffffffffffffff16815260200180602001828103825283818151815260200191508051906020019080838360005b8381101561325f578082015181840152602081019050613244565b50505050905090810190601f16801561328c5780820380516001836020036101000a031916815260200191505b509350505050602060405180830381600087803b1580156132ac57600080fd5b505af11580156132c0573d6000803e3d6000fd5b505050506040513d60208110156132d657600080fd5b8101908080519060200190929190505050505050565b6000600460008473ffffffffffffffffffffffffffffffffffffffff1673ffffffffffffffffffffffffffffffffffffffff16815260200190815260200160002060008373ffffffffffffffffffffffffffffffffffffffff1673ffffffffffffffffffffffffffffffffffffffff16815260200190815260200160002054905092915050565b6133a1336000357fffffffff0000000000000000000000000000000000000000000000000000000016613c9d565b6133aa57600080fd5b6060600b60009054906101000a900473ffffffffffffffffffffffffffffffffffffffff16600a5483604051602401808473ffffffffffffffffffffffffffffffffffffffff1673ffffffffffffffffffffffffffffffffffffffff1681526020018381526020018273ffffffffffffffffffffffffffffffffffffffff1673ffffffffffffffffffffffffffffffffffffffff16815260200193505050506040516020818303038152906040527f1d10f231000000000000000000000000000000000000000000000000000000007bffffffffffffffffffffffffffffffffffffffffffffffffffffffff19166020820180517bffffffffffffffffffffffffffffffffffffffffffffffffffffffff838183161783525050505090503073ffffffffffffffffffffffffffffffffffffffff16631cff79cd600e60009054906101000a900473ffffffffffffffffffffffffffffffffffffffff16836040518363ffffffff1660e01b8152600401808373ffffffffffffffffffffffffffffffffffffffff1673ffffffffffffffffffffffffffffffffffffffff16815260200180602001828103825283818151815260200191508051906020019080838360005b8381101561358957808201518184015260208101905061356e565b50505050905090810190601f1680156135b65780820380516001836020036101000a031916815260200191505b509350505050602060405180830381600087803b1580156135d657600080fd5b505af11580156135ea573d6000803e3d6000fd5b505050506040513d602081101561360057600080fd5b8101908080519060200190929190505050505050565b600d60009054906101000a900473ffffffffffffffffffffffffffffffffffffffff1681565b600080600d60009054906101000a900473ffffffffffffffffffffffffffffffffffffffff1673ffffffffffffffffffffffffffffffffffffffff1663e304c608600a546040518263ffffffff1660e01b81526004018082815260200191505060806040518083038186803b1580156136b457600080fd5b505afa1580156136c8573d6000803e3d6000fd5b505050506040513d60808110156136de57600080fd5b81019080805190602001909291908051906020019092919080519060200190929190805190602001909291905050509350505050600d60009054906101000a900473ffffffffffffffffffffffffffffffffffffffff1673ffffffffffffffffffffffffffffffffffffffff166351a885c0600a54836040518363ffffffff1660e01b8152600401808381526020018281526020019250505060206040518083038186803b15801561378f57600080fd5b505afa1580156137a3573d6000803e3d6000fd5b505050506040513d60208110156137b957600080fd5b810190808051906020019092919050505091505090565b600080600080600061380c670de0b6b3a76400006137fe661ff973cafa800089613ef890919063ffffffff16565b613f7e90919063ffffffff16565b945061383d670de0b6b3a764000061382f60115489613ef890919063ffffffff16565b613f7e90919063ffffffff16565b93506138528587613fc890919063ffffffff16565b92506138678484613fc890919063ffffffff16565b9150600061389f613876612eac565b613891670de0b6b3a764000086613ef890919063ffffffff16565b613f7e90919063ffffffff16565b90506138d5670de0b6b3a76400006138c7836138b961179a565b613ef890919063ffffffff16565b613f7e90919063ffffffff16565b91505091939590929450565b600073ffffffffffffffffffffffffffffffffffffffff168273ffffffffffffffffffffffffffffffffffffffff161415613984576040517f08c379a000000000000000000000000000000000000000000000000000000000815260040180806020018281038252601f8152602001807f45524332303a206d696e7420746f20746865207a65726f20616464726573730081525060200191505060405180910390fd5b6139998160055461454690919063ffffffff16565b6005819055506139f181600360008573ffffffffffffffffffffffffffffffffffffffff1673ffffffffffffffffffffffffffffffffffffffff1681526020019081526020016000205461454690919063ffffffff16565b600360008473ffffffffffffffffffffffffffffffffffffffff1673ffffffffffffffffffffffffffffffffffffffff168152602001908152602001600020819055508173ffffffffffffffffffffffffffffffffffffffff16600073ffffffffffffffffffffffffffffffffffffffff167fddf252ad1be2c89b69c2b068fc378daa952ba7f163c4a11628f55a4df523b3ef836040518082815260200191505060405180910390a35050565b600033905090565b600073ffffffffffffffffffffffffffffffffffffffff168373ffffffffffffffffffffffffffffffffffffffff161415613b2c576040517f08c379a00000000000000000000000000000000000000000000000000000000081526004018080602001828103825260248152602001806148be6024913960400191505060405180910390fd5b600073ffffffffffffffffffffffffffffffffffffffff168273ffffffffffffffffffffffffffffffffffffffff161415613bb2576040517f08c379a00000000000000000000000000000000000000000000000000000000081526004018080602001828103825260228152602001806147c16022913960400191505060405180910390fd5b80600460008573ffffffffffffffffffffffffffffffffffffffff1673ffffffffffffffffffffffffffffffffffffffff16815260200190815260200160002060008473ffffffffffffffffffffffffffffffffffffffff1673ffffffffffffffffffffffffffffffffffffffff168152602001908152602001600020819055508173ffffffffffffffffffffffffffffffffffffffff168373ffffffffffffffffffffffffffffffffffffffff167f8c5be1e5ebec7d5bd14f71427d1e84f3dd0314c0f7b2291e5b200ac8c7c3b925836040518082815260200191505060405180910390a3505050565b60003073ffffffffffffffffffffffffffffffffffffffff168373ffffffffffffffffffffffffffffffffffffffff161415613cdc5760019050613ef2565b600760009054906101000a900473ffffffffffffffffffffffffffffffffffffffff1673ffffffffffffffffffffffffffffffffffffffff168373ffffffffffffffffffffffffffffffffffffffff161415613d3b5760019050613ef2565b600073ffffffffffffffffffffffffffffffffffffffff16600660009054906101000a900473ffffffffffffffffffffffffffffffffffffffff1673ffffffffffffffffffffffffffffffffffffffff161415613d9b5760009050613ef2565b600660009054906101000a900473ffffffffffffffffffffffffffffffffffffffff1673ffffffffffffffffffffffffffffffffffffffff1663b70096138430856040518463ffffffff1660e01b8152600401808473ffffffffffffffffffffffffffffffffffffffff1673ffffffffffffffffffffffffffffffffffffffff1681526020018373ffffffffffffffffffffffffffffffffffffffff1673ffffffffffffffffffffffffffffffffffffffff168152602001827bffffffffffffffffffffffffffffffffffffffffffffffffffffffff19167bffffffffffffffffffffffffffffffffffffffffffffffffffffffff19168152602001935050505060206040518083038186803b158015613eb457600080fd5b505afa158015613ec8573d6000803e3d6000fd5b505050506040513d6020811015613ede57600080fd5b810190808051906020019092919050505090505b92915050565b600080831415613f0b5760009050613f78565b6000828402905082848281613f1c57fe5b0414613f73576040517f08c379a000000000000000000000000000000000000000000000000000000000815260040180806020018281038252602181526020018061482f6021913960400191505060405180910390fd5b809150505b92915050565b6000613fc083836040518060400160405280601a81526020017f536166654d6174683a206469766973696f6e206279207a65726f000000000000815250614624565b905092915050565b600061400a83836040518060400160405280601e81526020017f536166654d6174683a207375627472616374696f6e206f766572666c6f770000815250614486565b905092915050565b600073ffffffffffffffffffffffffffffffffffffffff168273ffffffffffffffffffffffffffffffffffffffff161415614098576040517f08c379a00000000000000000000000000000000000000000000000000000000081526004018080602001828103825260218152602001806148786021913960400191505060405180910390fd5b6141048160405180606001604052806022815260200161477a60229139600360008673ffffffffffffffffffffffffffffffffffffffff1673ffffffffffffffffffffffffffffffffffffffff168152602001908152602001600020546144869092919063ffffffff16565b600360008473ffffffffffffffffffffffffffffffffffffffff1673ffffffffffffffffffffffffffffffffffffffff1681526020019081526020016000208190555061415c81600554613fc890919063ffffffff16565b600581905550600073ffffffffffffffffffffffffffffffffffffffff168273ffffffffffffffffffffffffffffffffffffffff167fddf252ad1be2c89b69c2b068fc378daa952ba7f163c4a11628f55a4df523b3ef836040518082815260200191505060405180910390a35050565b600073ffffffffffffffffffffffffffffffffffffffff168373ffffffffffffffffffffffffffffffffffffffff161415614252576040517f08c379a00000000000000000000000000000000000000000000000000000000081526004018080602001828103825260258152602001806148996025913960400191505060405180910390fd5b600073ffffffffffffffffffffffffffffffffffffffff168273ffffffffffffffffffffffffffffffffffffffff1614156142d8576040517f08c379a00000000000000000000000000000000000000000000000000000000081526004018080602001828103825260238152602001806147316023913960400191505060405180910390fd5b614344816040518060600160405280602681526020016147e360269139600360008773ffffffffffffffffffffffffffffffffffffffff1673ffffffffffffffffffffffffffffffffffffffff168152602001908152602001600020546144869092919063ffffffff16565b600360008573ffffffffffffffffffffffffffffffffffffffff1673ffffffffffffffffffffffffffffffffffffffff168152602001908152602001600020819055506143d981600360008573ffffffffffffffffffffffffffffffffffffffff1673ffffffffffffffffffffffffffffffffffffffff1681526020019081526020016000205461454690919063ffffffff16565b600360008473ffffffffffffffffffffffffffffffffffffffff1673ffffffffffffffffffffffffffffffffffffffff168152602001908152602001600020819055508173ffffffffffffffffffffffffffffffffffffffff168373ffffffffffffffffffffffffffffffffffffffff167fddf252ad1be2c89b69c2b068fc378daa952ba7f163c4a11628f55a4df523b3ef836040518082815260200191505060405180910390a3505050565b6000838311158290614533576040517f08c379a00000000000000000000000000000000000000000000000000000000081526004018080602001828103825283818151815260200191508051906020019080838360005b838110156144f85780820151818401526020810190506144dd565b50505050905090810190601f1680156145255780820380516001836020036101000a031916815260200191505b509250505060405180910390fd5b5060008385039050809150509392505050565b6000808284019050838110156145c4576040517f08c379a000000000000000000000000000000000000000000000000000000000815260040180806020018281038252601b8152602001807f536166654d6174683a206164646974696f6e206f766572666c6f77000000000081525060200191505060405180910390fd5b8091505092915050565b6000816145fa6145ea856b033b2e3c9fd0803ce80000006146ea565b600285816145f457fe5b04614716565b8161460157fe5b04905092915050565b600082828403915081111561461e57600080fd5b92915050565b600080831182906146d0576040517f08c379a00000000000000000000000000000000000000000000000000000000081526004018080602001828103825283818151815260200191508051906020019080838360005b8381101561469557808201518184015260208101905061467a565b50505050905090810190601f1680156146c25780820380516001836020036101000a031916815260200191505b509250505060405180910390fd5b5060008385816146dc57fe5b049050809150509392505050565b600080821480614707575082828385029250828161470457fe5b04145b61471057600080fd5b92915050565b600082828401915081101561472a57600080fd5b9291505056fe45524332303a207472616e7366657220746f20746865207a65726f206164647265737370726f746f636f6c20666565207472616e7366657220746f2067756c706572206661696c656445524332303a206275726e20616d6f756e7420657863656564732062616c616e63655f746f6b656e73546f52656465656d206578636565647320746f74616c537570706c79282945524332303a20617070726f766520746f20746865207a65726f206164647265737345524332303a207472616e7366657220616d6f756e7420657863656564732062616c616e636563616e6e6f742076696f6c61746520636f6c6c61746572616c2073616665747920726174696f536166654d6174683a206d756c7469706c69636174696f6e206f766572666c6f7745524332303a207472616e7366657220616d6f756e74206578636565647320616c6c6f77616e636545524332303a206275726e2066726f6d20746865207a65726f206164647265737345524332303a207472616e736665722066726f6d20746865207a65726f206164647265737345524332303a20617070726f76652066726f6d20746865207a65726f206164647265737345524332303a2064656372656173656420616c6c6f77616e63652062656c6f77207a65726fa265627a7a72315820d33776012ec5c2497995eb8c4ab9ffaadea64cd2ad4d40062eda20090772fe6664736f6c634300051100326175746f6d6174652875696e743235362c75696e743235362c75696e743235362c75696e743235362c75696e7432353629536166654d6174683a206d756c7469706c69636174696f6e206f766572666c6f77",
  "source": "// File: ../common.5/openzeppelin/token/ERC20/IERC20.sol\r\n\r\npragma solidity ^0.5.0;\r\n\r\n/**\r\n * @dev Interface of the ERC20 standard as defined in the EIP. Does not include\r\n * the optional functions; to access them see {ERC20Detailed}.\r\n */\r\ninterface IERC20 {\r\n    /**\r\n     * @dev Returns the amount of tokens in existence.\r\n     */\r\n    function totalSupply() external view returns (uint256);\r\n\r\n    /**\r\n     * @dev Returns the amount of tokens owned by `account`.\r\n     */\r\n    function balanceOf(address account) external view returns (uint256);\r\n\r\n    /**\r\n     * @dev Moves `amount` tokens from the caller's account to `recipient`.\r\n     *\r\n     * Returns a boolean value indicating whether the operation succeeded.\r\n     *\r\n     * Emits a {Transfer} event.\r\n     */\r\n    function transfer(address recipient, uint256 amount) external returns (bool);\r\n\r\n    /**\r\n     * @dev Returns the remaining number of tokens that `spender` will be\r\n     * allowed to spend on behalf of `owner` through {transferFrom}. This is\r\n     * zero by default.\r\n     *\r\n     * This value changes when {approve} or {transferFrom} are called.\r\n     */\r\n    function allowance(address owner, address spender) external view returns (uint256);\r\n\r\n    /**\r\n     * @dev Sets `amount` as the allowance of `spender` over the caller's tokens.\r\n     *\r\n     * Returns a boolean value indicating whether the operation succeeded.\r\n     *\r\n     * IMPORTANT: Beware that changing an allowance with this method brings the risk\r\n     * that someone may use both the old and the new allowance by unfortunate\r\n     * transaction ordering. One possible solution to mitigate this race\r\n     * condition is to first reduce the spender's allowance to 0 and set the\r\n     * desired value afterwards:\r\n     * https://github.com/ethereum/EIPs/issues/20#issuecomment-263524729\r\n     *\r\n     * Emits an {Approval} event.\r\n     */\r\n    function approve(address spender, uint256 amount) external returns (bool);\r\n\r\n    /**\r\n     * @dev Moves `amount` tokens from `sender` to `recipient` using the\r\n     * allowance mechanism. `amount` is then deducted from the caller's\r\n     * allowance.\r\n     *\r\n     * Returns a boolean value indicating whether the operation succeeded.\r\n     *\r\n     * Emits a {Transfer} event.\r\n     */\r\n    function transferFrom(address sender, address recipient, uint256 amount) external returns (bool);\r\n\r\n    /**\r\n     * @dev Emitted when `value` tokens are moved from one account (`from`) to\r\n     * another (`to`).\r\n     *\r\n     * Note that `value` may be zero.\r\n     */\r\n    event Transfer(address indexed from, address indexed to, uint256 value);\r\n\r\n    /**\r\n     * @dev Emitted when the allowance of a `spender` for an `owner` is set by\r\n     * a call to {approve}. `value` is the new allowance.\r\n     */\r\n    event Approval(address indexed owner, address indexed spender, uint256 value);\r\n}\r\n\r\n// File: ../common.5/openzeppelin/token/ERC20/ERC20Detailed.sol\r\n\r\npragma solidity ^0.5.0;\r\n\r\n\r\n/**\r\n * @dev Optional functions from the ERC20 standard.\r\n */\r\ncontract ERC20Detailed is IERC20 {\r\n    string private _name;\r\n    string private _symbol;\r\n    uint8 private _decimals;\r\n\r\n    /**\r\n     * @dev Sets the values for `name`, `symbol`, and `decimals`. All three of\r\n     * these values are immutable: they can only be set once during\r\n     * construction.\r\n     */\r\n    constructor (string memory name, string memory symbol, uint8 decimals) public {\r\n        _name = name;\r\n        _symbol = symbol;\r\n        _decimals = decimals;\r\n    }\r\n\r\n    /**\r\n     * @dev Returns the name of the token.\r\n     */\r\n    function name() public view returns (string memory) {\r\n        return _name;\r\n    }\r\n\r\n    /**\r\n     * @dev Returns the symbol of the token, usually a shorter version of the\r\n     * name.\r\n     */\r\n    function symbol() public view returns (string memory) {\r\n        return _symbol;\r\n    }\r\n\r\n    /**\r\n     * @dev Returns the number of decimals used to get its user representation.\r\n     * For example, if `decimals` equals `2`, a balance of `505` tokens should\r\n     * be displayed to a user as `5,05` (`505 / 10 ** 2`).\r\n     *\r\n     * Tokens usually opt for a value of 18, imitating the relationship between\r\n     * Ether and Wei.\r\n     *\r\n     * NOTE: This information is only used for _display_ purposes: it in\r\n     * no way affects any of the arithmetic of the contract, including\r\n     * {IERC20-balanceOf} and {IERC20-transfer}.\r\n     */\r\n    function decimals() public view returns (uint8) {\r\n        return _decimals;\r\n    }\r\n}\r\n\r\n// File: ../common.5/openzeppelin/GSN/Context.sol\r\n\r\npragma solidity ^0.5.0;\r\n\r\n/*\r\n * @dev Provides information about the current execution context, including the\r\n * sender of the transaction and its data. While these are generally available\r\n * via msg.sender and msg.data, they should not be accessed in such a direct\r\n * manner, since when dealing with GSN meta-transactions the account sending and\r\n * paying for execution may not be the actual sender (as far as an application\r\n * is concerned).\r\n *\r\n * This contract is only required for intermediate, library-like contracts.\r\n */\r\ncontract Context {\r\n    // Empty internal constructor, to prevent people from mistakenly deploying\r\n    // an instance of this contract, which should be used via inheritance.\r\n    constructor () internal { }\r\n    // solhint-disable-previous-line no-empty-blocks\r\n\r\n    function _msgSender() internal view returns (address payable) {\r\n        return msg.sender;\r\n    }\r\n\r\n    function _msgData() internal view returns (bytes memory) {\r\n        this; // silence state mutability warning without generating bytecode - see https://github.com/ethereum/solidity/issues/2691\r\n        return msg.data;\r\n    }\r\n}\r\n\r\n// File: ../common.5/openzeppelin/math/SafeMath.sol\r\n\r\npragma solidity ^0.5.0;\r\n\r\n/**\r\n * @dev Wrappers over Solidity's arithmetic operations with added overflow\r\n * checks.\r\n *\r\n * Arithmetic operations in Solidity wrap on overflow. This can easily result\r\n * in bugs, because programmers usually assume that an overflow raises an\r\n * error, which is the standard behavior in high level programming languages.\r\n * `SafeMath` restores this intuition by reverting the transaction when an\r\n * operation overflows.\r\n *\r\n * Using this library instead of the unchecked operations eliminates an entire\r\n * class of bugs, so it's recommended to use it always.\r\n */\r\nlibrary SafeMath {\r\n    /**\r\n     * @dev Returns the addition of two unsigned integers, reverting on\r\n     * overflow.\r\n     *\r\n     * Counterpart to Solidity's `+` operator.\r\n     *\r\n     * Requirements:\r\n     * - Addition cannot overflow.\r\n     */\r\n    function add(uint256 a, uint256 b) internal pure returns (uint256) {\r\n        uint256 c = a + b;\r\n        require(c >= a, \"SafeMath: addition overflow\");\r\n\r\n        return c;\r\n    }\r\n\r\n    /**\r\n     * @dev Returns the subtraction of two unsigned integers, reverting on\r\n     * overflow (when the result is negative).\r\n     *\r\n     * Counterpart to Solidity's `-` operator.\r\n     *\r\n     * Requirements:\r\n     * - Subtraction cannot overflow.\r\n     */\r\n    function sub(uint256 a, uint256 b) internal pure returns (uint256) {\r\n        return sub(a, b, \"SafeMath: subtraction overflow\");\r\n    }\r\n\r\n    /**\r\n     * @dev Returns the subtraction of two unsigned integers, reverting with custom message on\r\n     * overflow (when the result is negative).\r\n     *\r\n     * Counterpart to Solidity's `-` operator.\r\n     *\r\n     * Requirements:\r\n     * - Subtraction cannot overflow.\r\n     *\r\n     * _Available since v2.4.0._\r\n     */\r\n    function sub(uint256 a, uint256 b, string memory errorMessage) internal pure returns (uint256) {\r\n        require(b <= a, errorMessage);\r\n        uint256 c = a - b;\r\n\r\n        return c;\r\n    }\r\n\r\n    /**\r\n     * @dev Returns the multiplication of two unsigned integers, reverting on\r\n     * overflow.\r\n     *\r\n     * Counterpart to Solidity's `*` operator.\r\n     *\r\n     * Requirements:\r\n     * - Multiplication cannot overflow.\r\n     */\r\n    function mul(uint256 a, uint256 b) internal pure returns (uint256) {\r\n        // Gas optimization: this is cheaper than requiring 'a' not being zero, but the\r\n        // benefit is lost if 'b' is also tested.\r\n        // See: https://github.com/OpenZeppelin/openzeppelin-contracts/pull/522\r\n        if (a == 0) {\r\n            return 0;\r\n        }\r\n\r\n        uint256 c = a * b;\r\n        require(c / a == b, \"SafeMath: multiplication overflow\");\r\n\r\n        return c;\r\n    }\r\n\r\n    /**\r\n     * @dev Returns the integer division of two unsigned integers. Reverts on\r\n     * division by zero. The result is rounded towards zero.\r\n     *\r\n     * Counterpart to Solidity's `/` operator. Note: this function uses a\r\n     * `revert` opcode (which leaves remaining gas untouched) while Solidity\r\n     * uses an invalid opcode to revert (consuming all remaining gas).\r\n     *\r\n     * Requirements:\r\n     * - The divisor cannot be zero.\r\n     */\r\n    function div(uint256 a, uint256 b) internal pure returns (uint256) {\r\n        return div(a, b, \"SafeMath: division by zero\");\r\n    }\r\n\r\n    /**\r\n     * @dev Returns the integer division of two unsigned integers. Reverts with custom message on\r\n     * division by zero. The result is rounded towards zero.\r\n     *\r\n     * Counterpart to Solidity's `/` operator. Note: this function uses a\r\n     * `revert` opcode (which leaves remaining gas untouched) while Solidity\r\n     * uses an invalid opcode to revert (consuming all remaining gas).\r\n     *\r\n     * Requirements:\r\n     * - The divisor cannot be zero.\r\n     *\r\n     * _Available since v2.4.0._\r\n     */\r\n    function div(uint256 a, uint256 b, string memory errorMessage) internal pure returns (uint256) {\r\n        // Solidity only automatically asserts when dividing by 0\r\n        require(b > 0, errorMessage);\r\n        uint256 c = a / b;\r\n        // assert(a == b * c + a % b); // There is no case in which this doesn't hold\r\n\r\n        return c;\r\n    }\r\n\r\n    /**\r\n     * @dev Returns the remainder of dividing two unsigned integers. (unsigned integer modulo),\r\n     * Reverts when dividing by zero.\r\n     *\r\n     * Counterpart to Solidity's `%` operator. This function uses a `revert`\r\n     * opcode (which leaves remaining gas untouched) while Solidity uses an\r\n     * invalid opcode to revert (consuming all remaining gas).\r\n     *\r\n     * Requirements:\r\n     * - The divisor cannot be zero.\r\n     */\r\n    function mod(uint256 a, uint256 b) internal pure returns (uint256) {\r\n        return mod(a, b, \"SafeMath: modulo by zero\");\r\n    }\r\n\r\n    /**\r\n     * @dev Returns the remainder of dividing two unsigned integers. (unsigned integer modulo),\r\n     * Reverts with custom message when dividing by zero.\r\n     *\r\n     * Counterpart to Solidity's `%` operator. This function uses a `revert`\r\n     * opcode (which leaves remaining gas untouched) while Solidity uses an\r\n     * invalid opcode to revert (consuming all remaining gas).\r\n     *\r\n     * Requirements:\r\n     * - The divisor cannot be zero.\r\n     *\r\n     * _Available since v2.4.0._\r\n     */\r\n    function mod(uint256 a, uint256 b, string memory errorMessage) internal pure returns (uint256) {\r\n        require(b != 0, errorMessage);\r\n        return a % b;\r\n    }\r\n}\r\n\r\n// File: ../common.5/openzeppelin/token/ERC20/ERC20.sol\r\n\r\npragma solidity ^0.5.0;\r\n\r\n\r\n\r\n\r\n/**\r\n * @dev Implementation of the {IERC20} interface.\r\n *\r\n * This implementation is agnostic to the way tokens are created. This means\r\n * that a supply mechanism has to be added in a derived contract using {_mint}.\r\n * For a generic mechanism see {ERC20Mintable}.\r\n *\r\n * TIP: For a detailed writeup see our guide\r\n * https://forum.zeppelin.solutions/t/how-to-implement-erc20-supply-mechanisms/226[How\r\n * to implement supply mechanisms].\r\n *\r\n * We have followed general OpenZeppelin guidelines: functions revert instead\r\n * of returning `false` on failure. This behavior is nonetheless conventional\r\n * and does not conflict with the expectations of ERC20 applications.\r\n *\r\n * Additionally, an {Approval} event is emitted on calls to {transferFrom}.\r\n * This allows applications to reconstruct the allowance for all accounts just\r\n * by listening to said events. Other implementations of the EIP may not emit\r\n * these events, as it isn't required by the specification.\r\n *\r\n * Finally, the non-standard {decreaseAllowance} and {increaseAllowance}\r\n * functions have been added to mitigate the well-known issues around setting\r\n * allowances. See {IERC20-approve}.\r\n */\r\ncontract ERC20 is Context, IERC20 {\r\n    using SafeMath for uint256;\r\n\r\n    mapping (address => uint256) private _balances;\r\n\r\n    mapping (address => mapping (address => uint256)) private _allowances;\r\n\r\n    uint256 private _totalSupply;\r\n\r\n    /**\r\n     * @dev See {IERC20-totalSupply}.\r\n     */\r\n    function totalSupply() public view returns (uint256) {\r\n        return _totalSupply;\r\n    }\r\n\r\n    /**\r\n     * @dev See {IERC20-balanceOf}.\r\n     */\r\n    function balanceOf(address account) public view returns (uint256) {\r\n        return _balances[account];\r\n    }\r\n\r\n    /**\r\n     * @dev See {IERC20-transfer}.\r\n     *\r\n     * Requirements:\r\n     *\r\n     * - `recipient` cannot be the zero address.\r\n     * - the caller must have a balance of at least `amount`.\r\n     */\r\n    function transfer(address recipient, uint256 amount) public returns (bool) {\r\n        _transfer(_msgSender(), recipient, amount);\r\n        return true;\r\n    }\r\n\r\n    /**\r\n     * @dev See {IERC20-allowance}.\r\n     */\r\n    function allowance(address owner, address spender) public view returns (uint256) {\r\n        return _allowances[owner][spender];\r\n    }\r\n\r\n    /**\r\n     * @dev See {IERC20-approve}.\r\n     *\r\n     * Requirements:\r\n     *\r\n     * - `spender` cannot be the zero address.\r\n     */\r\n    function approve(address spender, uint256 amount) public returns (bool) {\r\n        _approve(_msgSender(), spender, amount);\r\n        return true;\r\n    }\r\n\r\n    /**\r\n     * @dev See {IERC20-transferFrom}.\r\n     *\r\n     * Emits an {Approval} event indicating the updated allowance. This is not\r\n     * required by the EIP. See the note at the beginning of {ERC20};\r\n     *\r\n     * Requirements:\r\n     * - `sender` and `recipient` cannot be the zero address.\r\n     * - `sender` must have a balance of at least `amount`.\r\n     * - the caller must have allowance for `sender`'s tokens of at least\r\n     * `amount`.\r\n     */\r\n    function transferFrom(address sender, address recipient, uint256 amount) public returns (bool) {\r\n        _transfer(sender, recipient, amount);\r\n        _approve(sender, _msgSender(), _allowances[sender][_msgSender()].sub(amount, \"ERC20: transfer amount exceeds allowance\"));\r\n        return true;\r\n    }\r\n\r\n    /**\r\n     * @dev Atomically increases the allowance granted to `spender` by the caller.\r\n     *\r\n     * This is an alternative to {approve} that can be used as a mitigation for\r\n     * problems described in {IERC20-approve}.\r\n     *\r\n     * Emits an {Approval} event indicating the updated allowance.\r\n     *\r\n     * Requirements:\r\n     *\r\n     * - `spender` cannot be the zero address.\r\n     */\r\n    function increaseAllowance(address spender, uint256 addedValue) public returns (bool) {\r\n        _approve(_msgSender(), spender, _allowances[_msgSender()][spender].add(addedValue));\r\n        return true;\r\n    }\r\n\r\n    /**\r\n     * @dev Atomically decreases the allowance granted to `spender` by the caller.\r\n     *\r\n     * This is an alternative to {approve} that can be used as a mitigation for\r\n     * problems described in {IERC20-approve}.\r\n     *\r\n     * Emits an {Approval} event indicating the updated allowance.\r\n     *\r\n     * Requirements:\r\n     *\r\n     * - `spender` cannot be the zero address.\r\n     * - `spender` must have allowance for the caller of at least\r\n     * `subtractedValue`.\r\n     */\r\n    function decreaseAllowance(address spender, uint256 subtractedValue) public returns (bool) {\r\n        _approve(_msgSender(), spender, _allowances[_msgSender()][spender].sub(subtractedValue, \"ERC20: decreased allowance below zero\"));\r\n        return true;\r\n    }\r\n\r\n    /**\r\n     * @dev Moves tokens `amount` from `sender` to `recipient`.\r\n     *\r\n     * This is internal function is equivalent to {transfer}, and can be used to\r\n     * e.g. implement automatic token fees, slashing mechanisms, etc.\r\n     *\r\n     * Emits a {Transfer} event.\r\n     *\r\n     * Requirements:\r\n     *\r\n     * - `sender` cannot be the zero address.\r\n     * - `recipient` cannot be the zero address.\r\n     * - `sender` must have a balance of at least `amount`.\r\n     */\r\n    function _transfer(address sender, address recipient, uint256 amount) internal {\r\n        require(sender != address(0), \"ERC20: transfer from the zero address\");\r\n        require(recipient != address(0), \"ERC20: transfer to the zero address\");\r\n\r\n        _balances[sender] = _balances[sender].sub(amount, \"ERC20: transfer amount exceeds balance\");\r\n        _balances[recipient] = _balances[recipient].add(amount);\r\n        emit Transfer(sender, recipient, amount);\r\n    }\r\n\r\n    /** @dev Creates `amount` tokens and assigns them to `account`, increasing\r\n     * the total supply.\r\n     *\r\n     * Emits a {Transfer} event with `from` set to the zero address.\r\n     *\r\n     * Requirements\r\n     *\r\n     * - `to` cannot be the zero address.\r\n     */\r\n    function _mint(address account, uint256 amount) internal {\r\n        require(account != address(0), \"ERC20: mint to the zero address\");\r\n\r\n        _totalSupply = _totalSupply.add(amount);\r\n        _balances[account] = _balances[account].add(amount);\r\n        emit Transfer(address(0), account, amount);\r\n    }\r\n\r\n    /**\r\n     * @dev Destroys `amount` tokens from `account`, reducing the\r\n     * total supply.\r\n     *\r\n     * Emits a {Transfer} event with `to` set to the zero address.\r\n     *\r\n     * Requirements\r\n     *\r\n     * - `account` cannot be the zero address.\r\n     * - `account` must have at least `amount` tokens.\r\n     */\r\n    function _burn(address account, uint256 amount) internal {\r\n        require(account != address(0), \"ERC20: burn from the zero address\");\r\n\r\n        _balances[account] = _balances[account].sub(amount, \"ERC20: burn amount exceeds balance\");\r\n        _totalSupply = _totalSupply.sub(amount);\r\n        emit Transfer(account, address(0), amount);\r\n    }\r\n\r\n    /**\r\n     * @dev Sets `amount` as the allowance of `spender` over the `owner`s tokens.\r\n     *\r\n     * This is internal function is equivalent to `approve`, and can be used to\r\n     * e.g. set automatic allowances for certain subsystems, etc.\r\n     *\r\n     * Emits an {Approval} event.\r\n     *\r\n     * Requirements:\r\n     *\r\n     * - `owner` cannot be the zero address.\r\n     * - `spender` cannot be the zero address.\r\n     */\r\n    function _approve(address owner, address spender, uint256 amount) internal {\r\n        require(owner != address(0), \"ERC20: approve from the zero address\");\r\n        require(spender != address(0), \"ERC20: approve to the zero address\");\r\n\r\n        _allowances[owner][spender] = amount;\r\n        emit Approval(owner, spender, amount);\r\n    }\r\n\r\n    /**\r\n     * @dev Destroys `amount` tokens from `account`.`amount` is then deducted\r\n     * from the caller's allowance.\r\n     *\r\n     * See {_burn} and {_approve}.\r\n     */\r\n    function _burnFrom(address account, uint256 amount) internal {\r\n        _burn(account, amount);\r\n        _approve(account, _msgSender(), _allowances[account][_msgSender()].sub(amount, \"ERC20: burn amount exceeds allowance\"));\r\n    }\r\n}\r\n\r\n// File: contracts/DSMath.sol\r\n\r\npragma solidity ^0.5.17;\r\n\r\ncontract DSMath {\r\n    function add(uint256 x, uint256 y) internal pure returns (uint256 z) {\r\n        require((z = x + y) >= x);\r\n    }\r\n\r\n    function sub(uint256 x, uint256 y) internal pure returns (uint256 z) {\r\n        require((z = x - y) <= x);\r\n    }\r\n\r\n    function mul(uint256 x, uint256 y) internal pure returns (uint256 z) {\r\n        require(y == 0 || (z = x * y) / y == x);\r\n    }\r\n\r\n    function div(uint256 x, uint256 y) internal pure returns (uint256 z) {\r\n        return x / y;\r\n    }\r\n\r\n    function min(uint256 x, uint256 y) internal pure returns (uint256 z) {\r\n        return x <= y ? x : y;\r\n    }\r\n\r\n    function max(uint256 x, uint256 y) internal pure returns (uint256 z) {\r\n        return x >= y ? x : y;\r\n    }\r\n\r\n    function imin(int256 x, int256 y) internal pure returns (int256 z) {    \r\n        return x <= y ? x : y;\r\n    }\r\n\r\n    function imax(int256 x, int256 y) internal pure returns (int256 z) {\r\n        return x >= y ? x : y;\r\n    }\r\n\r\n    uint256 constant WAD = 10**18;\r\n    uint256 constant RAY = 10**27;\r\n\r\n    function wmul(uint256 x, uint256 y) internal pure returns (uint256 z) {\r\n        z = add(mul(x, y), WAD / 2) / WAD;\r\n    }\r\n\r\n    function rmul(uint256 x, uint256 y) internal pure returns (uint256 z) {\r\n        z = add(mul(x, y), RAY / 2) / RAY;\r\n    }\r\n\r\n    function wdiv(uint256 x, uint256 y) internal pure returns (uint256 z) {\r\n        z = add(mul(x, WAD), y / 2) / y;\r\n    }\r\n\r\n    function rdiv(uint256 x, uint256 y) internal pure returns (uint256 z) {\r\n        z = add(mul(x, RAY), y / 2) / y;\r\n    }\r\n\r\n    function rpow(uint256 x, uint256 n) internal pure returns (uint256 z) {\r\n        z = n % 2 != 0 ? x : RAY;\r\n\r\n        for (n /= 2; n != 0; n /= 2) {\r\n            x = rmul(x, x);\r\n\r\n            if (n % 2 != 0) {\r\n                z = rmul(z, x);\r\n            }\r\n        }\r\n    }\r\n}\r\n\r\n// File: contracts/DSProxy.sol\r\n\r\npragma solidity ^0.5.17;\r\n\r\ncontract DSAuthority {\r\n    function canCall(address src, address dst, bytes4 sig) public view returns (bool);\r\n}\r\n\r\ncontract DSAuthEvents {\r\n    event LogSetAuthority(address indexed authority);\r\n    event LogSetOwner(address indexed owner);\r\n}\r\n\r\ncontract DSAuth is DSAuthEvents {\r\n    DSAuthority public authority;\r\n    address public owner;\r\n\r\n    constructor() public {\r\n        owner = msg.sender;\r\n        emit LogSetOwner(msg.sender);\r\n    }\r\n\r\n    function setOwner(address owner_) public auth {\r\n        owner = owner_;\r\n        emit LogSetOwner(owner);\r\n    }\r\n\r\n    function setAuthority(DSAuthority authority_) public auth {\r\n        authority = authority_;\r\n        emit LogSetAuthority(address(authority));\r\n    }\r\n\r\n    modifier auth {\r\n        require(isAuthorized(msg.sender, msg.sig));\r\n        _;\r\n    }\r\n\r\n    function isAuthorized(address src, bytes4 sig) internal view returns (bool) {\r\n        if (src == address(this)) {\r\n            return true;\r\n        } else if (src == owner) {\r\n            return true;\r\n        } else if (authority == DSAuthority(0)) {\r\n            return false;\r\n        } else {\r\n            return authority.canCall(src, address(this), sig);\r\n        }\r\n    }\r\n}\r\n\r\ncontract DSNote {\r\n    event LogNote(\r\n        bytes4 indexed sig,\r\n        address indexed guy,\r\n        bytes32 indexed foo,\r\n        bytes32 indexed bar,\r\n        uint256 wad,\r\n        bytes fax\r\n    ) anonymous;\r\n\r\n    modifier note {\r\n        bytes32 foo;\r\n        bytes32 bar;\r\n\r\n        assembly {\r\n            foo := calldataload(4)\r\n            bar := calldataload(36)\r\n        }\r\n\r\n        emit LogNote(msg.sig, msg.sender, foo, bar, msg.value, msg.data);\r\n\r\n        _;\r\n    }\r\n}\r\n\r\ncontract DSProxy is DSAuth, DSNote {\r\n    DSProxyCache public cache; \r\n\r\n    constructor(address _cacheAddr) public {\r\n        require(setCache(_cacheAddr));\r\n    }\r\n\r\n    function() external payable {}\r\n\r\n    \r\n    function execute(bytes memory _code, bytes memory _data)\r\n        public\r\n        payable\r\n        returns (address target, bytes32 response)\r\n    {\r\n        target = cache.read(_code);\r\n        if (target == address(0)) {\r\n            \r\n            target = cache.write(_code);\r\n        }\r\n\r\n        response = execute(target, _data);\r\n    }\r\n\r\n    function execute(address _target, bytes memory _data)\r\n        public\r\n        payable\r\n        auth\r\n        note\r\n        returns (bytes32 response)\r\n    {\r\n        require(_target != address(0));\r\n\r\n        \r\n        assembly {\r\n            let succeeded := delegatecall(\r\n                sub(gas, 5000),\r\n                _target,\r\n                add(_data, 0x20),\r\n                mload(_data),\r\n                0,\r\n                32\r\n            )\r\n            response := mload(0) \r\n            switch iszero(succeeded)\r\n                case 1 {\r\n                    \r\n                    revert(0, 0)\r\n                }\r\n        }\r\n    }\r\n\r\n    \r\n    function setCache(address _cacheAddr) public payable auth note returns (bool) {\r\n        require(_cacheAddr != address(0)); \r\n        cache = DSProxyCache(_cacheAddr); \r\n        return true;\r\n    }\r\n}\r\n\r\ncontract DSProxyCache {\r\n    mapping(bytes32 => address) cache;\r\n\r\n    function read(bytes memory _code) public view returns (address) {\r\n        bytes32 hash = keccak256(_code);\r\n        return cache[hash];\r\n    }\r\n\r\n    function write(bytes memory _code) public returns (address target) {\r\n        assembly {\r\n            target := create(0, add(_code, 0x20), mload(_code))\r\n            switch iszero(extcodesize(target))\r\n                case 1 {\r\n                    \r\n                    revert(0, 0)\r\n                }\r\n        }\r\n        bytes32 hash = keccak256(_code);\r\n        cache[hash] = target;\r\n    }\r\n}\r\n\r\n// File: contracts/dETH.sol\r\n\r\n// Listen up degen!\r\n// This token is called dETH (death get it) because it will kill your hard earned money!\r\n// This contract has no tests, it was tested manually a little on Kovan!\r\n// This contract has no audit, so you're just plain insane if you give this thing a cent!\r\n// I know the guy who wrote this and I wouldn't trust him with mission critical code!\r\n\r\npragma solidity ^0.5.17;\r\n\r\n\r\n\r\n\r\n\r\n\r\ncontract IDSGuard is DSAuthority\r\n{\r\n    function permit(address src, address dst, bytes32 sig) public;\r\n}\r\n\r\ncontract IDSGuardFactory {\r\n    function newGuard() public returns (IDSGuard guard);\r\n}\r\n\r\ncontract IDSProxy\r\n{\r\n    function execute(address _target, bytes memory _data) public payable returns (bytes32);\r\n}\r\n\r\ncontract IMCDSaverProxy\r\n{\r\n    function getCdpDetailedInfo(uint _cdpId) public view returns (uint collateral, uint debt, uint price, bytes32 ilk);\r\n    function getRatio(uint _cdpId, bytes32 _ilk) public view returns (uint);\r\n}\r\n\r\ncontract IChainLinkPriceOracle\r\n{\r\n    function latestRoundData()\r\n        external\r\n        view\r\n        returns (\r\n            uint80 roundId,\r\n            int256 answer,\r\n            uint256 startedAt,\r\n            uint256 updatedAt,\r\n            uint80 answeredInRound);\r\n}\r\n\r\ncontract IMakerOracle\r\n{\r\n    function read()\r\n        public \r\n        view \r\n        returns(bytes32);\r\n}\r\n\r\ncontract IVAT\r\n{\r\n    function urns(bytes32 cdp, address owner)\r\n        public\r\n        view\r\n        returns(uint256);\r\n}\r\n\r\ncontract IMakerManager \r\n{\r\n    function VAT()\r\n        public\r\n        view\r\n        returns(IVAT);\r\n}\r\n\r\ncontract Oracle\r\n{\r\n    using SafeMath for uint256;\r\n\r\n    uint constant ONE_PERC = 10**16; // 1.0%\r\n    uint constant HUNDRED_PERC = 10**18; // 100.0%\r\n\r\n    IMakerOracle public makerOracle;\r\n    IChainLinkPriceOracle public daiUsdOracle;\r\n    IChainLinkPriceOracle public ethUsdOracle;\r\n\r\n    constructor (\r\n            IMakerOracle _makerOracle,\r\n            IChainLinkPriceOracle _daiUsdOracle,\r\n            IChainLinkPriceOracle _ethUsdOracle) \r\n        public\r\n    {\r\n        makerOracle = _makerOracle;\r\n        daiUsdOracle = _daiUsdOracle;\r\n        ethUsdOracle = _ethUsdOracle;\r\n    }   \r\n\r\n    function getEthDaiPrice() \r\n        public\r\n        view\r\n        returns (uint _price)\r\n    {\r\n        // maker's price comes back as a decimal with 18 places\r\n        uint makerEthUsdPrice = uint(makerOracle.read()); \r\n        (,int chainlinkEthUsdPrice,,,) = ethUsdOracle.latestRoundData();\r\n        (,int chainlinkDaiUsdPrice,,,) = daiUsdOracle.latestRoundData();\r\n\r\n        // chainlink's price comes back as a decimal with 8 places\r\n        // multiplying two of them, produces 16 places\r\n        // we need it in the WAD format which has 18, therefore .mul(10**2) at the end\r\n        uint chainlinkEthDaiPrice = uint(chainlinkEthUsdPrice).mul(uint(chainlinkDaiUsdPrice)).mul(10**2);\r\n    \r\n        // if the differnce between the ethdai price from chainlink is more than 10% different from the\r\n        // maker oracle price, trust the maker oracle \r\n        uint percDiff = absDiff(makerEthUsdPrice, uint(chainlinkDaiUsdPrice))\r\n            .mul(HUNDRED_PERC)\r\n            .div(makerEthUsdPrice);\r\n        return percDiff > ONE_PERC.mul(10) ? \r\n            makerEthUsdPrice :\r\n            chainlinkEthDaiPrice;\r\n    }\r\n\r\n    function absDiff(uint a, uint b)\r\n        internal\r\n        pure\r\n        returns(uint)\r\n    {\r\n        return a > b ? a - b : b - a;\r\n    }\r\n}\r\n\r\ncontract dETH is \r\n    Context, \r\n    ERC20Detailed, \r\n    ERC20,\r\n    DSMath,\r\n    DSProxy\r\n{\r\n    using SafeMath for uint;\r\n\r\n    uint constant ONE_PERC = 10**16;                    //   1.0% \r\n    uint constant HUNDRED_PERC = 10**18;                // 100.0%\r\n\r\n    uint constant PROTOCOL_FEE_PERC = 9*10**15;         //   0.9%\r\n    \r\n    address payable public gulper;\r\n    uint public cdpId;\r\n    \r\n    address public makerManager;\r\n    address public ethGemJoin;\r\n\r\n    IMCDSaverProxy public saverProxy;\r\n    address public saverProxyActions;\r\n    Oracle public oracle;\r\n\r\n    // automation variables\r\n    uint public minRedemptionRatio;\r\n    uint public automationFeePerc;\r\n    \r\n    constructor(\r\n            address payable _gulper,\r\n            address _proxyCache,\r\n            uint _cdpId,\r\n\r\n            address _makerManager,\r\n            address _ethGemJoin,\r\n            \r\n            IMCDSaverProxy _saverProxy,\r\n            address _saverProxyActions,\r\n            Oracle _oracle,\r\n            \r\n            address _initialRecipient,\r\n            \r\n            address _DSGuardFactory,\r\n            address _FoundryTreasury)\r\n        public\r\n        DSProxy(_proxyCache)\r\n        ERC20Detailed(\"Derived Ether\", \"dEth\", 18)\r\n    {\r\n        gulper = _gulper;\r\n        cdpId = _cdpId;\r\n\r\n        makerManager = _makerManager;\r\n        ethGemJoin = _ethGemJoin;\r\n        saverProxy = _saverProxy;\r\n        saverProxyActions = _saverProxyActions;\r\n        oracle = _oracle;\r\n        minRedemptionRatio = 160;\r\n        automationFeePerc = ONE_PERC;           //   1.0%\r\n        \r\n        _mint(_initialRecipient, getExcessCollateral());\r\n\r\n        // set the relevant authorities to make sure the parameters can be adjusted later on\r\n        IDSGuard guard = IDSGuardFactory(_DSGuardFactory).newGuard();\r\n        guard.permit(\r\n            _FoundryTreasury,\r\n            address(this),\r\n            bytes4(keccak256(\"automate(uint256,uint256,uint256,uint256,uint256)\")));\r\n        setAuthority(guard);\r\n\r\n        require(\r\n            authority.canCall(\r\n                _FoundryTreasury, \r\n                address(this), \r\n                bytes4(keccak256(\"automate(uint256,uint256,uint256,uint256,uint256)\"))),\r\n            \"guard setting failed\");\r\n    }\r\n\r\n    function changeGulper(address payable _newGulper)\r\n        public\r\n        auth\r\n    {\r\n        gulper = _newGulper;\r\n    }\r\n\r\n    function giveCDPToDSProxy(address _dsProxy)\r\n        public\r\n        auth\r\n    {\r\n        bytes memory giveProxyCall = abi.encodeWithSignature(\r\n            \"give(address,uint256,address)\", \r\n            makerManager, \r\n            cdpId, \r\n            _dsProxy);\r\n        \r\n        IDSProxy(address(this)).execute(saverProxyActions, giveProxyCall);\r\n    }\r\n\r\n    function getCollateral()\r\n        public\r\n        view\r\n        returns(uint _price, uint _totalCollateral, uint _debt, uint _collateralDenominatedDebt, uint _excessCollateral)\r\n    {\r\n        _price = getCollateralPriceRAY();\r\n        (_totalCollateral, _debt,,) = saverProxy.getCdpDetailedInfo(cdpId);\r\n        _collateralDenominatedDebt = rdiv(_debt, _price);\r\n        _excessCollateral = sub(_totalCollateral, _collateralDenominatedDebt);\r\n    }\r\n\r\n    function getCollateralPriceRAY()\r\n        public\r\n        view\r\n        returns (uint _price)\r\n    {\r\n        // we multiply by 10^9 to cast the price to a RAY number as used by the Maker CDP\r\n        _price = oracle.getEthDaiPrice().mul(10**9);\r\n    }\r\n\r\n    function getExcessCollateral()\r\n        public\r\n        view\r\n        returns(uint _excessCollateral)\r\n    {\r\n        (,,,, _excessCollateral) = getCollateral();\r\n    }\r\n\r\n    function getRatio()\r\n        public\r\n        view\r\n        returns(uint _ratio)\r\n    {\r\n        (,,,bytes32 ilk) = saverProxy.getCdpDetailedInfo(cdpId);\r\n        _ratio = saverProxy.getRatio(cdpId, ilk);\r\n    }\r\n\r\n    function getMinRedemptionRatio()\r\n        public\r\n        view\r\n        returns(uint _minRatio)\r\n    {\r\n        // due to rdiv returning 10^9 less than one would intuitively expect, I've chosen to\r\n        // set minRedemptionRatio to an integer value of discrete whole percentages for clarity \r\n        // and rather just multiply it by 10^9 here so that it is on the same order as getRatio() when comparing the two.\r\n        _minRatio = DSMath.rdiv(minRedemptionRatio.mul(10**9), 100);\r\n    }\r\n\r\n    function calculateIssuanceAmount(uint _suppliedCollateral)\r\n        public\r\n        view\r\n        returns (\r\n            uint _protocolFee,\r\n            uint _automationFee,\r\n            uint _actualCollateralAdded,\r\n            uint _accreditedCollateral,\r\n            uint _tokensIssued)\r\n    {\r\n        _protocolFee = _suppliedCollateral.mul(PROTOCOL_FEE_PERC).div(HUNDRED_PERC);\r\n        _automationFee = _suppliedCollateral.mul(automationFeePerc).div(HUNDRED_PERC);\r\n        _actualCollateralAdded = _suppliedCollateral.sub(_protocolFee); // _protocolFee goes to the protocol \r\n        _accreditedCollateral = _actualCollateralAdded.sub(_automationFee); // _automationFee goes to the pool of funds in the cdp to offset gas implications\r\n        uint tokenSupplyPerc = _accreditedCollateral.mul(HUNDRED_PERC).div(getExcessCollateral());\r\n        _tokensIssued = totalSupply().mul(tokenSupplyPerc).div(HUNDRED_PERC);\r\n    }\r\n\r\n    event Issued(\r\n        address _receiver, \r\n        uint _suppliedCollateral,\r\n        uint _protocolFee,\r\n        uint _automationFee,\r\n        uint _actualCollateralAdded,\r\n        uint _accreditedCollateral,\r\n        uint _tokensIssued);\r\n\r\n    function squanderMyEthForWorthlessBeans(address _receiver)\r\n        payable\r\n        public\r\n    { \r\n        // Goals:\r\n        // 1. deposits eth into the vault \r\n        // 2. gives the holder a claim on the vault for later withdrawal\r\n\r\n        (uint protocolFee, \r\n        uint automationFee, \r\n        uint collateralToLock, \r\n        uint accreditedCollateral, \r\n        uint tokensToIssue)  = calculateIssuanceAmount(msg.value);\r\n\r\n        bytes memory lockETHproxyCall = abi.encodeWithSignature(\r\n            \"lockETH(address,address,uint256)\", \r\n            makerManager, \r\n            ethGemJoin,\r\n            cdpId);\r\n        \r\n        IDSProxy(address(this)).execute.value(collateralToLock)(saverProxyActions, lockETHproxyCall);\r\n        \r\n        (bool protocolFeePaymentSuccess,) = gulper.call.value(protocolFee)(\"\");\r\n        require(protocolFeePaymentSuccess, \"protocol fee transfer to gulper failed\");\r\n\r\n        // note: the automationFee is left in the CDP to cover the gas implications of leaving or joining dEth\r\n\r\n        _mint(_receiver, tokensToIssue);\r\n        \r\n        emit Issued(\r\n            _receiver, \r\n            msg.value, \r\n            protocolFee,\r\n            automationFee, \r\n            collateralToLock, \r\n            accreditedCollateral,\r\n            tokensToIssue);\r\n    }\r\n\r\n    function calculateRedemptionValue(uint _tokensToRedeem)\r\n        public\r\n        view\r\n        returns (\r\n            uint _protocolFee,\r\n            uint _automationFee,\r\n            uint _collateralRedeemed, \r\n            uint _collateralReturned)\r\n    {\r\n        // comment: a full check against the minimum ratio might be added in a future version\r\n        // for now keep in mind that this function may return values greater than those that \r\n        // could be executed in one transaction. \r\n        require(_tokensToRedeem <= totalSupply(), \"_tokensToRedeem exceeds totalSupply()\");\r\n        uint tokenSupplyPerc = _tokensToRedeem.mul(HUNDRED_PERC).div(totalSupply());\r\n        uint collateralAffected = getExcessCollateral().mul(tokenSupplyPerc).div(HUNDRED_PERC);\r\n        _protocolFee = collateralAffected.mul(PROTOCOL_FEE_PERC).div(HUNDRED_PERC);\r\n        _automationFee = collateralAffected.mul(automationFeePerc).div(HUNDRED_PERC);\r\n        _collateralRedeemed = collateralAffected.sub(_automationFee); // how much capital should go back to the \r\n        _collateralReturned = collateralAffected.sub(_protocolFee).sub(_automationFee);\r\n    }\r\n\r\n    event Redeemed(\r\n        address _redeemer,\r\n        address _receiver, \r\n        uint _tokensRedeemed,\r\n        uint _protocolFee,\r\n        uint _automationFee,\r\n        uint _collateralRedeemed,\r\n        uint _collateralReturned);\r\n\r\n    function redeem(address _receiver, uint _tokensToRedeem)\r\n        public\r\n    {\r\n        // Goals:\r\n        // 1. if the _tokensToRedeem being claimed does not drain the vault to below 160%\r\n        // 2. pull out the amount of ether the senders' tokens entitle them to and send it to them\r\n\r\n        (uint protocolFee, \r\n        uint automationFee, \r\n        uint collateralToFree,\r\n        uint collateralToReturn) = calculateRedemptionValue(_tokensToRedeem);\r\n\r\n        bytes memory freeETHProxyCall = abi.encodeWithSignature(\r\n            \"freeETH(address,address,uint256,uint256)\",\r\n            makerManager, \r\n            ethGemJoin, \r\n            cdpId,\r\n            collateralToFree);\r\n        IDSProxy(address(this)).execute(saverProxyActions, freeETHProxyCall);\r\n\r\n        _burn(msg.sender, _tokensToRedeem);\r\n\r\n        (bool protocolFeePaymentSuccess,) = gulper.call.value(protocolFee)(\"\");\r\n        require(protocolFeePaymentSuccess, \"protocol fee transfer to gulper failed\");\r\n\r\n        // note: the automationFee is left in the CDP to cover the gas implications of leaving or joining dEth\r\n        \r\n        (bool payoutSuccess,) = _receiver.call.value(collateralToReturn)(\"\");\r\n        require(payoutSuccess, \"eth payment reverted\");\r\n\r\n        // this ensures that the CDP will be boostable by DefiSaver before it can be bitten\r\n        // to prevent bites, getRatio() doesn't use oracle but the price set in the MakerCDP system \r\n        require(getRatio() >= getMinRedemptionRatio(), \"cannot violate collateral safety ratio\");\r\n\r\n        emit Redeemed(\r\n            msg.sender,\r\n            _receiver, \r\n            _tokensToRedeem,\r\n            protocolFee,\r\n            automationFee,\r\n            collateralToFree,\r\n            collateralToReturn);\r\n    }\r\n    \r\n    event AutomationSettingsChanged(\r\n            uint _repaymentRatio,\r\n            uint _targetRatio,\r\n            uint _boostRatio,\r\n            uint _minRedemptionRatio,\r\n            uint _automationFeePerc);\r\n\r\n    // note: all values used by defisaver are in WAD format\r\n    // we do not need that level of precision on this method\r\n    // so for simplicity and readability they are all set in discrete percentages here\r\n    function automate(\r\n            uint _repaymentRatio,\r\n            uint _targetRatio,\r\n            uint _boostRatio,\r\n            uint _minRedemptionRatio,\r\n            uint _automationFeePerc)\r\n        public\r\n        auth\r\n    {\r\n        // for reference - this function is called on the subscriptionsProxyV2: \r\n        // function subscribe(\r\n        //     uint _cdpId, \r\n        //     uint128 _minRatio, \r\n        //     uint128 _maxRatio, \r\n        //     uint128 _optimalRatioBoost, \r\n        //     uint128 _optimalRatioRepay, \r\n        //     bool _boostEnabled, \r\n        //     bool _nextPriceEnabled, \r\n        //     address _subscriptions) \r\n\r\n        address subscriptionsProxyV2 = 0xd6f2125bF7FE2bc793dE7685EA7DEd8bff3917DD;\r\n        address subscriptions = 0xC45d4f6B6bf41b6EdAA58B01c4298B8d9078269a; // since it's unclear if there's an official version of this on Kovan, this is hardcoded for mainnet\r\n\r\n        minRedemptionRatio = _minRedemptionRatio;\r\n        automationFeePerc = _automationFeePerc;\r\n\r\n        bytes memory subscribeProxyCall = abi.encodeWithSignature(\r\n            \"subscribe(uint256,uint128,uint128,uint128,uint128,bool,bool,address)\",\r\n            cdpId, \r\n            _repaymentRatio * 10**16, \r\n            _boostRatio * 10**16,\r\n            _targetRatio * 10**16,\r\n            _targetRatio * 10**16,\r\n            true,\r\n            true,\r\n            subscriptions);\r\n        IDSProxy(address(this)).execute(subscriptionsProxyV2, subscribeProxyCall);\r\n\r\n        emit AutomationSettingsChanged(\r\n            _repaymentRatio,\r\n            _targetRatio,\r\n            _boostRatio,\r\n            minRedemptionRatio,\r\n            automationFeePerc);\r\n    }\r\n\r\n    function moveVatEthToCDP()\r\n        public\r\n    {\r\n        // or reference - this function is called on the MakerManager\r\n        // function wipeAndFreeETH(\r\n        //     address manager,\r\n        //     uint cdp,\r\n        //     int256 dart, // change in debt, chould be 0\r\n        //     int256 dink  // change in collateral, should be the entire balance available for the urn owner\r\n        // )\r\n\r\n        // goal :\r\n        // 1. get the ether in the urn for this cdp, back into the cdp itself\r\n\r\n        // logic :\r\n        // *look up the balance of the urn\r\n        // *frob that value back into the cdp\r\n\r\n        uint256 urnBalance = IMakerManager(makerManager).VAT().urns(bytes32(cdpId), address(this));\r\n\r\n        bytes memory frobProxyCall = abi.encodeWithSignature(\r\n            \"frob(address,uint256,int256,int256)\",\r\n            makerManager,\r\n            cdpId,\r\n            0,\r\n            int256(urnBalance));\r\n\r\n        IDSProxy(address(this)).execute(saverProxyActions, frobProxyCall);\r\n    }\r\n    \r\n    function () external payable { }\r\n}\r\n\r\n// File: contracts/MainnetdETH.sol\r\n\r\npragma solidity ^0.5.0;\r\n\r\n\r\ncontract DeployMainnetDEth \r\n{\r\n    event LogContracts(Oracle _oracle, dETH _dEth);\r\n\r\n    constructor()\r\n        public\r\n    {\r\n        Oracle oracle = new Oracle(\r\n            IMakerOracle(0x729D19f657BD0614b4985Cf1D82531c67569197B),                 //IMakerOracle _makerOracle,\r\n            IChainLinkPriceOracle(0xAed0c38402a5d19df6E4c03F4E2DceD6e29c1ee9),        //_daiUsdOracle\r\n            IChainLinkPriceOracle(0x5f4eC3Df9cbd43714FE2740f5E3616155c5b8419));         //_ethUsdOracle\r\n\r\n        dETH mainnetDeth = new dETH(\r\n            0xa3cC915E9f1f81185c8C6efb00f16F100e7F07CA,                 //_gulper,\r\n            0x271293c67E2D3140a0E9381EfF1F9b01E07B0795,                 //_proxyCache,\r\n            18963, //test\r\n            //18783,                                                    //_cdpId,\r\n\r\n            0x5ef30b9986345249bc32d8928B7ee64DE9435E39,                 //_makerManager,\r\n            0x2F0b23f53734252Bda2277357e97e1517d6B042A,                 //_ethGemJoin,\r\n\r\n            IMCDSaverProxy(0xC563aCE6FACD385cB1F34fA723f412Cc64E63D47), //_saverProxy\r\n            0x82ecD135Dce65Fbc6DbdD0e4237E0AF93FFD5038,                 //_saverProxyActions\r\n            oracle,                                                     //_oracle\r\n\r\n            0xB7c6bB064620270F8c1daA7502bCca75fC074CF4,                 //_initialRecipient\r\n            \r\n            0x5a15566417e6C1c9546523066500bDDBc53F88C7,                 //_dsGuardFactory\r\n            0x93fE7D1d24bE7CB33329800ba2166f4D28Eaa553);                //_foundryTreasury)\r\n\r\n        emit LogContracts(oracle, mainnetDeth);\r\n    }\r\n}\r\n",
  "sourcePath": "C:/Users/user/Git/dEth/smart-contracts/dETH2/contracts/flat.sol",
  "compiler": {
    "name": "solc",
    "version": "0.5.17+commit.d19bba13.Emscripten.clang"
  },
  "schemaVersion": "3.3.4",
  "updatedAt": "2021-04-12T12:18:04.255Z",
  "devdoc": {
    "methods": {
      "allowance(address,address)": {
        "details": "See {IERC20-allowance}."
      },
      "approve(address,uint256)": {
        "details": "See {IERC20-approve}.      * Requirements:      * - `spender` cannot be the zero address."
      },
      "balanceOf(address)": {
        "details": "See {IERC20-balanceOf}."
      },
      "decimals()": {
        "details": "Returns the number of decimals used to get its user representation. For example, if `decimals` equals `2`, a balance of `505` tokens should be displayed to a user as `5,05` (`505 / 10 ** 2`).      * Tokens usually opt for a value of 18, imitating the relationship between Ether and Wei.      * NOTE: This information is only used for _display_ purposes: it in no way affects any of the arithmetic of the contract, including {IERC20-balanceOf} and {IERC20-transfer}."
      },
      "decreaseAllowance(address,uint256)": {
        "details": "Atomically decreases the allowance granted to `spender` by the caller.      * This is an alternative to {approve} that can be used as a mitigation for problems described in {IERC20-approve}.      * Emits an {Approval} event indicating the updated allowance.      * Requirements:      * - `spender` cannot be the zero address. - `spender` must have allowance for the caller of at least `subtractedValue`."
      },
      "increaseAllowance(address,uint256)": {
        "details": "Atomically increases the allowance granted to `spender` by the caller.      * This is an alternative to {approve} that can be used as a mitigation for problems described in {IERC20-approve}.      * Emits an {Approval} event indicating the updated allowance.      * Requirements:      * - `spender` cannot be the zero address."
      },
      "name()": {
        "details": "Returns the name of the token."
      },
      "symbol()": {
        "details": "Returns the symbol of the token, usually a shorter version of the name."
      },
      "totalSupply()": {
        "details": "See {IERC20-totalSupply}."
      },
      "transfer(address,uint256)": {
        "details": "See {IERC20-transfer}.      * Requirements:      * - `recipient` cannot be the zero address. - the caller must have a balance of at least `amount`."
      },
      "transferFrom(address,address,uint256)": {
        "details": "See {IERC20-transferFrom}.      * Emits an {Approval} event indicating the updated allowance. This is not required by the EIP. See the note at the beginning of {ERC20};      * Requirements: - `sender` and `recipient` cannot be the zero address. - `sender` must have a balance of at least `amount`. - the caller must have allowance for `sender`'s tokens of at least `amount`."
      }
    }
  },
  "userdoc": {
    "methods": {}
  }
}